{
	"test2.sol": {
		"DEX": {
			"abi": [
				{
					"inputs": [],
					"stateMutability": "nonpayable",
					"type": "constructor"
				},
				{
					"anonymous": false,
					"inputs": [
						{
							"indexed": false,
							"internalType": "uint256",
							"name": "amount",
							"type": "uint256"
						}
					],
					"name": "Bought",
					"type": "event"
				},
				{
					"anonymous": false,
					"inputs": [
						{
							"indexed": false,
							"internalType": "uint256",
							"name": "amount",
							"type": "uint256"
						}
					],
					"name": "Sold",
					"type": "event"
				},
				{
					"inputs": [],
					"name": "buy",
					"outputs": [],
					"stateMutability": "payable",
					"type": "function"
				},
				{
					"inputs": [
						{
							"internalType": "uint256",
							"name": "amount",
							"type": "uint256"
						}
					],
					"name": "sell",
					"outputs": [],
					"stateMutability": "nonpayable",
					"type": "function"
				},
				{
					"inputs": [],
					"name": "token",
					"outputs": [
						{
							"internalType": "contract IERC20",
							"name": "",
							"type": "address"
						}
					],
					"stateMutability": "view",
					"type": "function"
				}
			],
			"devdoc": {
				"kind": "dev",
				"methods": {},
				"version": 1
			},
			"evm": {
				"assembly": "    /* \"test2.sol\":2527:3467  contract DEX {... */\n  mstore(0x40, 0x80)\n    /* \"test2.sol\":2641:2696  constructor() {... */\n  callvalue\n  dup1\n  iszero\n  tag_1\n  jumpi\n  0x00\n  dup1\n  revert\ntag_1:\n  pop\n    /* \"test2.sol\":2673:2689  new ERC20Basic() */\n  mload(0x40)\n  tag_4\n  swap1\n  tag_5\n  jump\t// in\ntag_4:\n  mload(0x40)\n  dup1\n  swap2\n  sub\n  swap1\n  0x00\n  create\n  dup1\n  iszero\n  dup1\n  iszero\n  tag_6\n  jumpi\n  returndatasize\n  0x00\n  dup1\n  returndatacopy\n  revert(0x00, returndatasize)\ntag_6:\n  pop\n    /* \"test2.sol\":2665:2670  token */\n  0x00\n  dup1\n    /* \"test2.sol\":2665:2689  token = new ERC20Basic() */\n  0x0100\n  exp\n  dup2\n  sload\n  dup2\n  0xffffffffffffffffffffffffffffffffffffffff\n  mul\n  not\n  and\n  swap1\n  dup4\n  0xffffffffffffffffffffffffffffffffffffffff\n  and\n  mul\n  or\n  swap1\n  sstore\n  pop\n    /* \"test2.sol\":2527:3467  contract DEX {... */\n  jump(tag_7)\ntag_5:\n  dataSize(sub_1)\n  dup1\n  dataOffset(sub_1)\n  dup4\n  codecopy\n  add\n  swap1\n  jump\t// out\ntag_7:\n  dataSize(sub_0)\n  dup1\n  dataOffset(sub_0)\n  0x00\n  codecopy\n  0x00\n  return\nstop\n\nsub_0: assembly {\n        /* \"test2.sol\":2527:3467  contract DEX {... */\n      mstore(0x40, 0x80)\n      jumpi(tag_1, lt(calldatasize, 0x04))\n      shr(0xe0, calldataload(0x00))\n      dup1\n      0xa6f2ae3a\n      eq\n      tag_2\n      jumpi\n      dup1\n      0xe4849b32\n      eq\n      tag_3\n      jumpi\n      dup1\n      0xfc0c546a\n      eq\n      tag_4\n      jumpi\n    tag_1:\n      0x00\n      dup1\n      revert\n        /* \"test2.sol\":2702:3069  function buy() payable public {... */\n    tag_2:\n      tag_5\n      tag_6\n      jump\t// in\n    tag_5:\n      stop\n        /* \"test2.sol\":3075:3464  function sell(uint256 amount) public {... */\n    tag_3:\n      callvalue\n      dup1\n      iszero\n      tag_7\n      jumpi\n      0x00\n      dup1\n      revert\n    tag_7:\n      pop\n      tag_8\n      0x04\n      dup1\n      calldatasize\n      sub\n      dup2\n      add\n      swap1\n      tag_9\n      swap2\n      swap1\n      tag_10\n      jump\t// in\n    tag_9:\n      tag_11\n      jump\t// in\n    tag_8:\n      stop\n        /* \"test2.sol\":2615:2634  IERC20 public token */\n    tag_4:\n      callvalue\n      dup1\n      iszero\n      tag_12\n      jumpi\n      0x00\n      dup1\n      revert\n    tag_12:\n      pop\n      tag_13\n      tag_14\n      jump\t// in\n    tag_13:\n      mload(0x40)\n      tag_15\n      swap2\n      swap1\n      tag_16\n      jump\t// in\n    tag_15:\n      mload(0x40)\n      dup1\n      swap2\n      sub\n      swap1\n      return\n        /* \"test2.sol\":2702:3069  function buy() payable public {... */\n    tag_6:\n        /* \"test2.sol\":2742:2761  uint256 amountTobuy */\n      0x00\n        /* \"test2.sol\":2764:2773  msg.value */\n      callvalue\n        /* \"test2.sol\":2742:2773  uint256 amountTobuy = msg.value */\n      swap1\n      pop\n        /* \"test2.sol\":2783:2801  uint256 dexBalance */\n      0x00\n        /* \"test2.sol\":2804:2809  token */\n      dup1\n      0x00\n      swap1\n      sload\n      swap1\n      0x0100\n      exp\n      swap1\n      div\n      0xffffffffffffffffffffffffffffffffffffffff\n      and\n        /* \"test2.sol\":2804:2819  token.balanceOf */\n      0xffffffffffffffffffffffffffffffffffffffff\n      and\n      0x70a08231\n        /* \"test2.sol\":2828:2832  this */\n      address\n        /* \"test2.sol\":2804:2834  token.balanceOf(address(this)) */\n      mload(0x40)\n      dup3\n      0xffffffff\n      and\n      0xe0\n      shl\n      dup2\n      mstore\n      0x04\n      add\n      tag_18\n      swap2\n      swap1\n      tag_19\n      jump\t// in\n    tag_18:\n      0x20\n      mload(0x40)\n      dup1\n      dup4\n      sub\n      dup2\n      dup7\n      dup1\n      extcodesize\n      iszero\n      dup1\n      iszero\n      tag_20\n      jumpi\n      0x00\n      dup1\n      revert\n    tag_20:\n      pop\n      gas\n      staticcall\n      iszero\n      dup1\n      iszero\n      tag_22\n      jumpi\n      returndatasize\n      0x00\n      dup1\n      returndatacopy\n      revert(0x00, returndatasize)\n    tag_22:\n      pop\n      pop\n      pop\n      pop\n      mload(0x40)\n      returndatasize\n      not(0x1f)\n      0x1f\n      dup3\n      add\n      and\n      dup3\n      add\n      dup1\n      0x40\n      mstore\n      pop\n      dup2\n      add\n      swap1\n      tag_23\n      swap2\n      swap1\n      tag_24\n      jump\t// in\n    tag_23:\n        /* \"test2.sol\":2783:2834  uint256 dexBalance = token.balanceOf(address(this)) */\n      swap1\n      pop\n        /* \"test2.sol\":2866:2867  0 */\n      0x00\n        /* \"test2.sol\":2852:2863  amountTobuy */\n      dup3\n        /* \"test2.sol\":2852:2867  amountTobuy > 0 */\n      gt\n        /* \"test2.sol\":2844:2899  require(amountTobuy > 0, \"You need to send some ether\") */\n      tag_25\n      jumpi\n      mload(0x40)\n      0x08c379a000000000000000000000000000000000000000000000000000000000\n      dup2\n      mstore\n      0x04\n      add\n      tag_26\n      swap1\n      tag_27\n      jump\t// in\n    tag_26:\n      mload(0x40)\n      dup1\n      swap2\n      sub\n      swap1\n      revert\n    tag_25:\n        /* \"test2.sol\":2932:2942  dexBalance */\n      dup1\n        /* \"test2.sol\":2917:2928  amountTobuy */\n      dup3\n        /* \"test2.sol\":2917:2942  amountTobuy <= dexBalance */\n      gt\n      iszero\n        /* \"test2.sol\":2909:2979  require(amountTobuy <= dexBalance, \"Not enough tokens in the reserve\") */\n      tag_28\n      jumpi\n      mload(0x40)\n      0x08c379a000000000000000000000000000000000000000000000000000000000\n      dup2\n      mstore\n      0x04\n      add\n      tag_29\n      swap1\n      tag_30\n      jump\t// in\n    tag_29:\n      mload(0x40)\n      dup1\n      swap2\n      sub\n      swap1\n      revert\n    tag_28:\n        /* \"test2.sol\":2989:2994  token */\n      0x00\n      dup1\n      sload\n      swap1\n      0x0100\n      exp\n      swap1\n      div\n      0xffffffffffffffffffffffffffffffffffffffff\n      and\n        /* \"test2.sol\":2989:3003  token.transfer */\n      0xffffffffffffffffffffffffffffffffffffffff\n      and\n      0xa9059cbb\n        /* \"test2.sol\":3004:3014  msg.sender */\n      caller\n        /* \"test2.sol\":3016:3027  amountTobuy */\n      dup5\n        /* \"test2.sol\":2989:3028  token.transfer(msg.sender, amountTobuy) */\n      mload(0x40)\n      dup4\n      0xffffffff\n      and\n      0xe0\n      shl\n      dup2\n      mstore\n      0x04\n      add\n      tag_31\n      swap3\n      swap2\n      swap1\n      tag_32\n      jump\t// in\n    tag_31:\n      0x20\n      mload(0x40)\n      dup1\n      dup4\n      sub\n      dup2\n      0x00\n      dup8\n      dup1\n      extcodesize\n      iszero\n      dup1\n      iszero\n      tag_33\n      jumpi\n      0x00\n      dup1\n      revert\n    tag_33:\n      pop\n      gas\n      call\n      iszero\n      dup1\n      iszero\n      tag_35\n      jumpi\n      returndatasize\n      0x00\n      dup1\n      returndatacopy\n      revert(0x00, returndatasize)\n    tag_35:\n      pop\n      pop\n      pop\n      pop\n      mload(0x40)\n      returndatasize\n      not(0x1f)\n      0x1f\n      dup3\n      add\n      and\n      dup3\n      add\n      dup1\n      0x40\n      mstore\n      pop\n      dup2\n      add\n      swap1\n      tag_36\n      swap2\n      swap1\n      tag_37\n      jump\t// in\n    tag_36:\n      pop\n        /* \"test2.sol\":3043:3062  Bought(amountTobuy) */\n      0x4e08ba899977cf7d4c2964bce71c6b9a7ef76ee5166a4c1249a1e08016e33ef1\n        /* \"test2.sol\":3050:3061  amountTobuy */\n      dup3\n        /* \"test2.sol\":3043:3062  Bought(amountTobuy) */\n      mload(0x40)\n      tag_38\n      swap2\n      swap1\n      tag_39\n      jump\t// in\n    tag_38:\n      mload(0x40)\n      dup1\n      swap2\n      sub\n      swap1\n      log1\n        /* \"test2.sol\":2702:3069  function buy() payable public {... */\n      pop\n      pop\n      jump\t// out\n        /* \"test2.sol\":3075:3464  function sell(uint256 amount) public {... */\n    tag_11:\n        /* \"test2.sol\":3139:3140  0 */\n      0x00\n        /* \"test2.sol\":3130:3136  amount */\n      dup2\n        /* \"test2.sol\":3130:3140  amount > 0 */\n      gt\n        /* \"test2.sol\":3122:3182  require(amount > 0, \"You need to sell at least some tokens\") */\n      tag_41\n      jumpi\n      mload(0x40)\n      0x08c379a000000000000000000000000000000000000000000000000000000000\n      dup2\n      mstore\n      0x04\n      add\n      tag_42\n      swap1\n      tag_43\n      jump\t// in\n    tag_42:\n      mload(0x40)\n      dup1\n      swap2\n      sub\n      swap1\n      revert\n    tag_41:\n        /* \"test2.sol\":3192:3209  uint256 allowance */\n      0x00\n        /* \"test2.sol\":3212:3217  token */\n      dup1\n      0x00\n      swap1\n      sload\n      swap1\n      0x0100\n      exp\n      swap1\n      div\n      0xffffffffffffffffffffffffffffffffffffffff\n      and\n        /* \"test2.sol\":3212:3227  token.allowance */\n      0xffffffffffffffffffffffffffffffffffffffff\n      and\n      0xdd62ed3e\n        /* \"test2.sol\":3228:3238  msg.sender */\n      caller\n        /* \"test2.sol\":3248:3252  this */\n      address\n        /* \"test2.sol\":3212:3254  token.allowance(msg.sender, address(this)) */\n      mload(0x40)\n      dup4\n      0xffffffff\n      and\n      0xe0\n      shl\n      dup2\n      mstore\n      0x04\n      add\n      tag_44\n      swap3\n      swap2\n      swap1\n      tag_45\n      jump\t// in\n    tag_44:\n      0x20\n      mload(0x40)\n      dup1\n      dup4\n      sub\n      dup2\n      dup7\n      dup1\n      extcodesize\n      iszero\n      dup1\n      iszero\n      tag_46\n      jumpi\n      0x00\n      dup1\n      revert\n    tag_46:\n      pop\n      gas\n      staticcall\n      iszero\n      dup1\n      iszero\n      tag_48\n      jumpi\n      returndatasize\n      0x00\n      dup1\n      returndatacopy\n      revert(0x00, returndatasize)\n    tag_48:\n      pop\n      pop\n      pop\n      pop\n      mload(0x40)\n      returndatasize\n      not(0x1f)\n      0x1f\n      dup3\n      add\n      and\n      dup3\n      add\n      dup1\n      0x40\n      mstore\n      pop\n      dup2\n      add\n      swap1\n      tag_49\n      swap2\n      swap1\n      tag_24\n      jump\t// in\n    tag_49:\n        /* \"test2.sol\":3192:3254  uint256 allowance = token.allowance(msg.sender, address(this)) */\n      swap1\n      pop\n        /* \"test2.sol\":3285:3291  amount */\n      dup2\n        /* \"test2.sol\":3272:3281  allowance */\n      dup2\n        /* \"test2.sol\":3272:3291  allowance >= amount */\n      lt\n      iszero\n        /* \"test2.sol\":3264:3321  require(allowance >= amount, \"Check the token allowance\") */\n      tag_50\n      jumpi\n      mload(0x40)\n      0x08c379a000000000000000000000000000000000000000000000000000000000\n      dup2\n      mstore\n      0x04\n      add\n      tag_51\n      swap1\n      tag_52\n      jump\t// in\n    tag_51:\n      mload(0x40)\n      dup1\n      swap2\n      sub\n      swap1\n      revert\n    tag_50:\n        /* \"test2.sol\":3331:3336  token */\n      0x00\n      dup1\n      sload\n      swap1\n      0x0100\n      exp\n      swap1\n      div\n      0xffffffffffffffffffffffffffffffffffffffff\n      and\n        /* \"test2.sol\":3331:3349  token.transferFrom */\n      0xffffffffffffffffffffffffffffffffffffffff\n      and\n      0x23b872dd\n        /* \"test2.sol\":3350:3360  msg.sender */\n      caller\n        /* \"test2.sol\":3370:3374  this */\n      address\n        /* \"test2.sol\":3377:3383  amount */\n      dup6\n        /* \"test2.sol\":3331:3384  token.transferFrom(msg.sender, address(this), amount) */\n      mload(0x40)\n      dup5\n      0xffffffff\n      and\n      0xe0\n      shl\n      dup2\n      mstore\n      0x04\n      add\n      tag_53\n      swap4\n      swap3\n      swap2\n      swap1\n      tag_54\n      jump\t// in\n    tag_53:\n      0x20\n      mload(0x40)\n      dup1\n      dup4\n      sub\n      dup2\n      0x00\n      dup8\n      dup1\n      extcodesize\n      iszero\n      dup1\n      iszero\n      tag_55\n      jumpi\n      0x00\n      dup1\n      revert\n    tag_55:\n      pop\n      gas\n      call\n      iszero\n      dup1\n      iszero\n      tag_57\n      jumpi\n      returndatasize\n      0x00\n      dup1\n      returndatacopy\n      revert(0x00, returndatasize)\n    tag_57:\n      pop\n      pop\n      pop\n      pop\n      mload(0x40)\n      returndatasize\n      not(0x1f)\n      0x1f\n      dup3\n      add\n      and\n      dup3\n      add\n      dup1\n      0x40\n      mstore\n      pop\n      dup2\n      add\n      swap1\n      tag_58\n      swap2\n      swap1\n      tag_37\n      jump\t// in\n    tag_58:\n      pop\n        /* \"test2.sol\":3402:3412  msg.sender */\n      caller\n        /* \"test2.sol\":3394:3422  payable(msg.sender).transfer */\n      0xffffffffffffffffffffffffffffffffffffffff\n      and\n        /* \"test2.sol\":3394:3430  payable(msg.sender).transfer(amount) */\n      0x08fc\n        /* \"test2.sol\":3423:3429  amount */\n      dup4\n        /* \"test2.sol\":3394:3430  payable(msg.sender).transfer(amount) */\n      swap1\n      dup2\n      iszero\n      mul\n      swap1\n      mload(0x40)\n      0x00\n      mload(0x40)\n      dup1\n      dup4\n      sub\n      dup2\n      dup6\n      dup9\n      dup9\n      call\n      swap4\n      pop\n      pop\n      pop\n      pop\n      iszero\n      dup1\n      iszero\n      tag_60\n      jumpi\n      returndatasize\n      0x00\n      dup1\n      returndatacopy\n      revert(0x00, returndatasize)\n    tag_60:\n      pop\n        /* \"test2.sol\":3445:3457  Sold(amount) */\n      0x92f64ca637d023f354075a4be751b169c1a8a9ccb6d33cdd0cb3520543995727\n        /* \"test2.sol\":3450:3456  amount */\n      dup3\n        /* \"test2.sol\":3445:3457  Sold(amount) */\n      mload(0x40)\n      tag_61\n      swap2\n      swap1\n      tag_39\n      jump\t// in\n    tag_61:\n      mload(0x40)\n      dup1\n      swap2\n      sub\n      swap1\n      log1\n        /* \"test2.sol\":3075:3464  function sell(uint256 amount) public {... */\n      pop\n      pop\n      jump\t// out\n        /* \"test2.sol\":2615:2634  IERC20 public token */\n    tag_14:\n      0x00\n      dup1\n      sload\n      swap1\n      0x0100\n      exp\n      swap1\n      div\n      0xffffffffffffffffffffffffffffffffffffffff\n      and\n      dup2\n      jump\t// out\n        /* \"#utility.yul\":7:144   */\n    tag_63:\n      0x00\n        /* \"#utility.yul\":92:98   */\n      dup2\n        /* \"#utility.yul\":86:99   */\n      mload\n        /* \"#utility.yul\":77:99   */\n      swap1\n      pop\n        /* \"#utility.yul\":108:138   */\n      tag_65\n        /* \"#utility.yul\":132:137   */\n      dup2\n        /* \"#utility.yul\":108:138   */\n      tag_66\n      jump\t// in\n    tag_65:\n        /* \"#utility.yul\":67:144   */\n      swap3\n      swap2\n      pop\n      pop\n      jump\t// out\n        /* \"#utility.yul\":150:289   */\n    tag_67:\n      0x00\n        /* \"#utility.yul\":234:240   */\n      dup2\n        /* \"#utility.yul\":221:241   */\n      calldataload\n        /* \"#utility.yul\":212:241   */\n      swap1\n      pop\n        /* \"#utility.yul\":250:283   */\n      tag_69\n        /* \"#utility.yul\":277:282   */\n      dup2\n        /* \"#utility.yul\":250:283   */\n      tag_70\n      jump\t// in\n    tag_69:\n        /* \"#utility.yul\":202:289   */\n      swap3\n      swap2\n      pop\n      pop\n      jump\t// out\n        /* \"#utility.yul\":295:438   */\n    tag_71:\n      0x00\n        /* \"#utility.yul\":383:389   */\n      dup2\n        /* \"#utility.yul\":377:390   */\n      mload\n        /* \"#utility.yul\":368:390   */\n      swap1\n      pop\n        /* \"#utility.yul\":399:432   */\n      tag_73\n        /* \"#utility.yul\":426:431   */\n      dup2\n        /* \"#utility.yul\":399:432   */\n      tag_70\n      jump\t// in\n    tag_73:\n        /* \"#utility.yul\":358:438   */\n      swap3\n      swap2\n      pop\n      pop\n      jump\t// out\n        /* \"#utility.yul\":444:722   */\n    tag_37:\n      0x00\n        /* \"#utility.yul\":560:562   */\n      0x20\n        /* \"#utility.yul\":548:557   */\n      dup3\n        /* \"#utility.yul\":539:546   */\n      dup5\n        /* \"#utility.yul\":535:558   */\n      sub\n        /* \"#utility.yul\":531:563   */\n      slt\n        /* \"#utility.yul\":528:530   */\n      iszero\n      tag_75\n      jumpi\n        /* \"#utility.yul\":576:577   */\n      0x00\n        /* \"#utility.yul\":573:574   */\n      dup1\n        /* \"#utility.yul\":566:578   */\n      revert\n        /* \"#utility.yul\":528:530   */\n    tag_75:\n        /* \"#utility.yul\":619:620   */\n      0x00\n        /* \"#utility.yul\":644:705   */\n      tag_76\n        /* \"#utility.yul\":697:704   */\n      dup5\n        /* \"#utility.yul\":688:694   */\n      dup3\n        /* \"#utility.yul\":677:686   */\n      dup6\n        /* \"#utility.yul\":673:695   */\n      add\n        /* \"#utility.yul\":644:705   */\n      tag_63\n      jump\t// in\n    tag_76:\n        /* \"#utility.yul\":634:705   */\n      swap2\n      pop\n        /* \"#utility.yul\":590:715   */\n      pop\n        /* \"#utility.yul\":518:722   */\n      swap3\n      swap2\n      pop\n      pop\n      jump\t// out\n        /* \"#utility.yul\":728:990   */\n    tag_10:\n      0x00\n        /* \"#utility.yul\":836:838   */\n      0x20\n        /* \"#utility.yul\":824:833   */\n      dup3\n        /* \"#utility.yul\":815:822   */\n      dup5\n        /* \"#utility.yul\":811:834   */\n      sub\n        /* \"#utility.yul\":807:839   */\n      slt\n        /* \"#utility.yul\":804:806   */\n      iszero\n      tag_78\n      jumpi\n        /* \"#utility.yul\":852:853   */\n      0x00\n        /* \"#utility.yul\":849:850   */\n      dup1\n        /* \"#utility.yul\":842:854   */\n      revert\n        /* \"#utility.yul\":804:806   */\n    tag_78:\n        /* \"#utility.yul\":895:896   */\n      0x00\n        /* \"#utility.yul\":920:973   */\n      tag_79\n        /* \"#utility.yul\":965:972   */\n      dup5\n        /* \"#utility.yul\":956:962   */\n      dup3\n        /* \"#utility.yul\":945:954   */\n      dup6\n        /* \"#utility.yul\":941:963   */\n      add\n        /* \"#utility.yul\":920:973   */\n      tag_67\n      jump\t// in\n    tag_79:\n        /* \"#utility.yul\":910:973   */\n      swap2\n      pop\n        /* \"#utility.yul\":866:983   */\n      pop\n        /* \"#utility.yul\":794:990   */\n      swap3\n      swap2\n      pop\n      pop\n      jump\t// out\n        /* \"#utility.yul\":996:1280   */\n    tag_24:\n      0x00\n        /* \"#utility.yul\":1115:1117   */\n      0x20\n        /* \"#utility.yul\":1103:1112   */\n      dup3\n        /* \"#utility.yul\":1094:1101   */\n      dup5\n        /* \"#utility.yul\":1090:1113   */\n      sub\n        /* \"#utility.yul\":1086:1118   */\n      slt\n        /* \"#utility.yul\":1083:1085   */\n      iszero\n      tag_81\n      jumpi\n        /* \"#utility.yul\":1131:1132   */\n      0x00\n        /* \"#utility.yul\":1128:1129   */\n      dup1\n        /* \"#utility.yul\":1121:1133   */\n      revert\n        /* \"#utility.yul\":1083:1085   */\n    tag_81:\n        /* \"#utility.yul\":1174:1175   */\n      0x00\n        /* \"#utility.yul\":1199:1263   */\n      tag_82\n        /* \"#utility.yul\":1255:1262   */\n      dup5\n        /* \"#utility.yul\":1246:1252   */\n      dup3\n        /* \"#utility.yul\":1235:1244   */\n      dup6\n        /* \"#utility.yul\":1231:1253   */\n      add\n        /* \"#utility.yul\":1199:1263   */\n      tag_71\n      jump\t// in\n    tag_82:\n        /* \"#utility.yul\":1189:1263   */\n      swap2\n      pop\n        /* \"#utility.yul\":1145:1273   */\n      pop\n        /* \"#utility.yul\":1073:1280   */\n      swap3\n      swap2\n      pop\n      pop\n      jump\t// out\n        /* \"#utility.yul\":1286:1404   */\n    tag_83:\n        /* \"#utility.yul\":1373:1397   */\n      tag_85\n        /* \"#utility.yul\":1391:1396   */\n      dup2\n        /* \"#utility.yul\":1373:1397   */\n      tag_86\n      jump\t// in\n    tag_85:\n        /* \"#utility.yul\":1368:1371   */\n      dup3\n        /* \"#utility.yul\":1361:1398   */\n      mstore\n        /* \"#utility.yul\":1351:1404   */\n      pop\n      pop\n      jump\t// out\n        /* \"#utility.yul\":1410:1567   */\n    tag_87:\n        /* \"#utility.yul\":1510:1560   */\n      tag_89\n        /* \"#utility.yul\":1554:1559   */\n      dup2\n        /* \"#utility.yul\":1510:1560   */\n      tag_90\n      jump\t// in\n    tag_89:\n        /* \"#utility.yul\":1505:1508   */\n      dup3\n        /* \"#utility.yul\":1498:1561   */\n      mstore\n        /* \"#utility.yul\":1488:1567   */\n      pop\n      pop\n      jump\t// out\n        /* \"#utility.yul\":1573:1942   */\n    tag_91:\n      0x00\n        /* \"#utility.yul\":1736:1803   */\n      tag_93\n        /* \"#utility.yul\":1800:1802   */\n      0x25\n        /* \"#utility.yul\":1795:1798   */\n      dup4\n        /* \"#utility.yul\":1736:1803   */\n      tag_94\n      jump\t// in\n    tag_93:\n        /* \"#utility.yul\":1729:1803   */\n      swap2\n      pop\n        /* \"#utility.yul\":1833:1867   */\n      0x596f75206e65656420746f2073656c6c206174206c6561737420736f6d652074\n        /* \"#utility.yul\":1829:1830   */\n      0x00\n        /* \"#utility.yul\":1824:1827   */\n      dup4\n        /* \"#utility.yul\":1820:1831   */\n      add\n        /* \"#utility.yul\":1813:1868   */\n      mstore\n        /* \"#utility.yul\":1899:1906   */\n      0x6f6b656e73000000000000000000000000000000000000000000000000000000\n        /* \"#utility.yul\":1894:1896   */\n      0x20\n        /* \"#utility.yul\":1889:1892   */\n      dup4\n        /* \"#utility.yul\":1885:1897   */\n      add\n        /* \"#utility.yul\":1878:1907   */\n      mstore\n        /* \"#utility.yul\":1933:1935   */\n      0x40\n        /* \"#utility.yul\":1928:1931   */\n      dup3\n        /* \"#utility.yul\":1924:1936   */\n      add\n        /* \"#utility.yul\":1917:1936   */\n      swap1\n      pop\n        /* \"#utility.yul\":1719:1942   */\n      swap2\n      swap1\n      pop\n      jump\t// out\n        /* \"#utility.yul\":1948:2271   */\n    tag_95:\n      0x00\n        /* \"#utility.yul\":2111:2178   */\n      tag_97\n        /* \"#utility.yul\":2175:2177   */\n      0x19\n        /* \"#utility.yul\":2170:2173   */\n      dup4\n        /* \"#utility.yul\":2111:2178   */\n      tag_94\n      jump\t// in\n    tag_97:\n        /* \"#utility.yul\":2104:2178   */\n      swap2\n      pop\n        /* \"#utility.yul\":2208:2235   */\n      0x436865636b2074686520746f6b656e20616c6c6f77616e636500000000000000\n        /* \"#utility.yul\":2204:2205   */\n      0x00\n        /* \"#utility.yul\":2199:2202   */\n      dup4\n        /* \"#utility.yul\":2195:2206   */\n      add\n        /* \"#utility.yul\":2188:2236   */\n      mstore\n        /* \"#utility.yul\":2262:2264   */\n      0x20\n        /* \"#utility.yul\":2257:2260   */\n      dup3\n        /* \"#utility.yul\":2253:2265   */\n      add\n        /* \"#utility.yul\":2246:2265   */\n      swap1\n      pop\n        /* \"#utility.yul\":2094:2271   */\n      swap2\n      swap1\n      pop\n      jump\t// out\n        /* \"#utility.yul\":2277:2607   */\n    tag_98:\n      0x00\n        /* \"#utility.yul\":2440:2507   */\n      tag_100\n        /* \"#utility.yul\":2504:2506   */\n      0x20\n        /* \"#utility.yul\":2499:2502   */\n      dup4\n        /* \"#utility.yul\":2440:2507   */\n      tag_94\n      jump\t// in\n    tag_100:\n        /* \"#utility.yul\":2433:2507   */\n      swap2\n      pop\n        /* \"#utility.yul\":2537:2571   */\n      0x4e6f7420656e6f75676820746f6b656e7320696e207468652072657365727665\n        /* \"#utility.yul\":2533:2534   */\n      0x00\n        /* \"#utility.yul\":2528:2531   */\n      dup4\n        /* \"#utility.yul\":2524:2535   */\n      add\n        /* \"#utility.yul\":2517:2572   */\n      mstore\n        /* \"#utility.yul\":2598:2600   */\n      0x20\n        /* \"#utility.yul\":2593:2596   */\n      dup3\n        /* \"#utility.yul\":2589:2601   */\n      add\n        /* \"#utility.yul\":2582:2601   */\n      swap1\n      pop\n        /* \"#utility.yul\":2423:2607   */\n      swap2\n      swap1\n      pop\n      jump\t// out\n        /* \"#utility.yul\":2613:2938   */\n    tag_101:\n      0x00\n        /* \"#utility.yul\":2776:2843   */\n      tag_103\n        /* \"#utility.yul\":2840:2842   */\n      0x1b\n        /* \"#utility.yul\":2835:2838   */\n      dup4\n        /* \"#utility.yul\":2776:2843   */\n      tag_94\n      jump\t// in\n    tag_103:\n        /* \"#utility.yul\":2769:2843   */\n      swap2\n      pop\n        /* \"#utility.yul\":2873:2902   */\n      0x596f75206e65656420746f2073656e6420736f6d652065746865720000000000\n        /* \"#utility.yul\":2869:2870   */\n      0x00\n        /* \"#utility.yul\":2864:2867   */\n      dup4\n        /* \"#utility.yul\":2860:2871   */\n      add\n        /* \"#utility.yul\":2853:2903   */\n      mstore\n        /* \"#utility.yul\":2929:2931   */\n      0x20\n        /* \"#utility.yul\":2924:2927   */\n      dup3\n        /* \"#utility.yul\":2920:2932   */\n      add\n        /* \"#utility.yul\":2913:2932   */\n      swap1\n      pop\n        /* \"#utility.yul\":2759:2938   */\n      swap2\n      swap1\n      pop\n      jump\t// out\n        /* \"#utility.yul\":2944:3062   */\n    tag_104:\n        /* \"#utility.yul\":3031:3055   */\n      tag_106\n        /* \"#utility.yul\":3049:3054   */\n      dup2\n        /* \"#utility.yul\":3031:3055   */\n      tag_107\n      jump\t// in\n    tag_106:\n        /* \"#utility.yul\":3026:3029   */\n      dup3\n        /* \"#utility.yul\":3019:3056   */\n      mstore\n        /* \"#utility.yul\":3009:3062   */\n      pop\n      pop\n      jump\t// out\n        /* \"#utility.yul\":3068:3290   */\n    tag_19:\n      0x00\n        /* \"#utility.yul\":3199:3201   */\n      0x20\n        /* \"#utility.yul\":3188:3197   */\n      dup3\n        /* \"#utility.yul\":3184:3202   */\n      add\n        /* \"#utility.yul\":3176:3202   */\n      swap1\n      pop\n        /* \"#utility.yul\":3212:3283   */\n      tag_109\n        /* \"#utility.yul\":3280:3281   */\n      0x00\n        /* \"#utility.yul\":3269:3278   */\n      dup4\n        /* \"#utility.yul\":3265:3282   */\n      add\n        /* \"#utility.yul\":3256:3262   */\n      dup5\n        /* \"#utility.yul\":3212:3283   */\n      tag_83\n      jump\t// in\n    tag_109:\n        /* \"#utility.yul\":3166:3290   */\n      swap3\n      swap2\n      pop\n      pop\n      jump\t// out\n        /* \"#utility.yul\":3296:3628   */\n    tag_45:\n      0x00\n        /* \"#utility.yul\":3455:3457   */\n      0x40\n        /* \"#utility.yul\":3444:3453   */\n      dup3\n        /* \"#utility.yul\":3440:3458   */\n      add\n        /* \"#utility.yul\":3432:3458   */\n      swap1\n      pop\n        /* \"#utility.yul\":3468:3539   */\n      tag_111\n        /* \"#utility.yul\":3536:3537   */\n      0x00\n        /* \"#utility.yul\":3525:3534   */\n      dup4\n        /* \"#utility.yul\":3521:3538   */\n      add\n        /* \"#utility.yul\":3512:3518   */\n      dup6\n        /* \"#utility.yul\":3468:3539   */\n      tag_83\n      jump\t// in\n    tag_111:\n        /* \"#utility.yul\":3549:3621   */\n      tag_112\n        /* \"#utility.yul\":3617:3619   */\n      0x20\n        /* \"#utility.yul\":3606:3615   */\n      dup4\n        /* \"#utility.yul\":3602:3620   */\n      add\n        /* \"#utility.yul\":3593:3599   */\n      dup5\n        /* \"#utility.yul\":3549:3621   */\n      tag_83\n      jump\t// in\n    tag_112:\n        /* \"#utility.yul\":3422:3628   */\n      swap4\n      swap3\n      pop\n      pop\n      pop\n      jump\t// out\n        /* \"#utility.yul\":3634:4076   */\n    tag_54:\n      0x00\n        /* \"#utility.yul\":3821:3823   */\n      0x60\n        /* \"#utility.yul\":3810:3819   */\n      dup3\n        /* \"#utility.yul\":3806:3824   */\n      add\n        /* \"#utility.yul\":3798:3824   */\n      swap1\n      pop\n        /* \"#utility.yul\":3834:3905   */\n      tag_114\n        /* \"#utility.yul\":3902:3903   */\n      0x00\n        /* \"#utility.yul\":3891:3900   */\n      dup4\n        /* \"#utility.yul\":3887:3904   */\n      add\n        /* \"#utility.yul\":3878:3884   */\n      dup7\n        /* \"#utility.yul\":3834:3905   */\n      tag_83\n      jump\t// in\n    tag_114:\n        /* \"#utility.yul\":3915:3987   */\n      tag_115\n        /* \"#utility.yul\":3983:3985   */\n      0x20\n        /* \"#utility.yul\":3972:3981   */\n      dup4\n        /* \"#utility.yul\":3968:3986   */\n      add\n        /* \"#utility.yul\":3959:3965   */\n      dup6\n        /* \"#utility.yul\":3915:3987   */\n      tag_83\n      jump\t// in\n    tag_115:\n        /* \"#utility.yul\":3997:4069   */\n      tag_116\n        /* \"#utility.yul\":4065:4067   */\n      0x40\n        /* \"#utility.yul\":4054:4063   */\n      dup4\n        /* \"#utility.yul\":4050:4068   */\n      add\n        /* \"#utility.yul\":4041:4047   */\n      dup5\n        /* \"#utility.yul\":3997:4069   */\n      tag_104\n      jump\t// in\n    tag_116:\n        /* \"#utility.yul\":3788:4076   */\n      swap5\n      swap4\n      pop\n      pop\n      pop\n      pop\n      jump\t// out\n        /* \"#utility.yul\":4082:4414   */\n    tag_32:\n      0x00\n        /* \"#utility.yul\":4241:4243   */\n      0x40\n        /* \"#utility.yul\":4230:4239   */\n      dup3\n        /* \"#utility.yul\":4226:4244   */\n      add\n        /* \"#utility.yul\":4218:4244   */\n      swap1\n      pop\n        /* \"#utility.yul\":4254:4325   */\n      tag_118\n        /* \"#utility.yul\":4322:4323   */\n      0x00\n        /* \"#utility.yul\":4311:4320   */\n      dup4\n        /* \"#utility.yul\":4307:4324   */\n      add\n        /* \"#utility.yul\":4298:4304   */\n      dup6\n        /* \"#utility.yul\":4254:4325   */\n      tag_83\n      jump\t// in\n    tag_118:\n        /* \"#utility.yul\":4335:4407   */\n      tag_119\n        /* \"#utility.yul\":4403:4405   */\n      0x20\n        /* \"#utility.yul\":4392:4401   */\n      dup4\n        /* \"#utility.yul\":4388:4406   */\n      add\n        /* \"#utility.yul\":4379:4385   */\n      dup5\n        /* \"#utility.yul\":4335:4407   */\n      tag_104\n      jump\t// in\n    tag_119:\n        /* \"#utility.yul\":4208:4414   */\n      swap4\n      swap3\n      pop\n      pop\n      pop\n      jump\t// out\n        /* \"#utility.yul\":4420:4668   */\n    tag_16:\n      0x00\n        /* \"#utility.yul\":4564:4566   */\n      0x20\n        /* \"#utility.yul\":4553:4562   */\n      dup3\n        /* \"#utility.yul\":4549:4567   */\n      add\n        /* \"#utility.yul\":4541:4567   */\n      swap1\n      pop\n        /* \"#utility.yul\":4577:4661   */\n      tag_121\n        /* \"#utility.yul\":4658:4659   */\n      0x00\n        /* \"#utility.yul\":4647:4656   */\n      dup4\n        /* \"#utility.yul\":4643:4660   */\n      add\n        /* \"#utility.yul\":4634:4640   */\n      dup5\n        /* \"#utility.yul\":4577:4661   */\n      tag_87\n      jump\t// in\n    tag_121:\n        /* \"#utility.yul\":4531:4668   */\n      swap3\n      swap2\n      pop\n      pop\n      jump\t// out\n        /* \"#utility.yul\":4674:5093   */\n    tag_43:\n      0x00\n        /* \"#utility.yul\":4878:4880   */\n      0x20\n        /* \"#utility.yul\":4867:4876   */\n      dup3\n        /* \"#utility.yul\":4863:4881   */\n      add\n        /* \"#utility.yul\":4855:4881   */\n      swap1\n      pop\n        /* \"#utility.yul\":4927:4936   */\n      dup2\n        /* \"#utility.yul\":4921:4925   */\n      dup2\n        /* \"#utility.yul\":4917:4937   */\n      sub\n        /* \"#utility.yul\":4913:4914   */\n      0x00\n        /* \"#utility.yul\":4902:4911   */\n      dup4\n        /* \"#utility.yul\":4898:4915   */\n      add\n        /* \"#utility.yul\":4891:4938   */\n      mstore\n        /* \"#utility.yul\":4955:5086   */\n      tag_123\n        /* \"#utility.yul\":5081:5085   */\n      dup2\n        /* \"#utility.yul\":4955:5086   */\n      tag_91\n      jump\t// in\n    tag_123:\n        /* \"#utility.yul\":4947:5086   */\n      swap1\n      pop\n        /* \"#utility.yul\":4845:5093   */\n      swap2\n      swap1\n      pop\n      jump\t// out\n        /* \"#utility.yul\":5099:5518   */\n    tag_52:\n      0x00\n        /* \"#utility.yul\":5303:5305   */\n      0x20\n        /* \"#utility.yul\":5292:5301   */\n      dup3\n        /* \"#utility.yul\":5288:5306   */\n      add\n        /* \"#utility.yul\":5280:5306   */\n      swap1\n      pop\n        /* \"#utility.yul\":5352:5361   */\n      dup2\n        /* \"#utility.yul\":5346:5350   */\n      dup2\n        /* \"#utility.yul\":5342:5362   */\n      sub\n        /* \"#utility.yul\":5338:5339   */\n      0x00\n        /* \"#utility.yul\":5327:5336   */\n      dup4\n        /* \"#utility.yul\":5323:5340   */\n      add\n        /* \"#utility.yul\":5316:5363   */\n      mstore\n        /* \"#utility.yul\":5380:5511   */\n      tag_125\n        /* \"#utility.yul\":5506:5510   */\n      dup2\n        /* \"#utility.yul\":5380:5511   */\n      tag_95\n      jump\t// in\n    tag_125:\n        /* \"#utility.yul\":5372:5511   */\n      swap1\n      pop\n        /* \"#utility.yul\":5270:5518   */\n      swap2\n      swap1\n      pop\n      jump\t// out\n        /* \"#utility.yul\":5524:5943   */\n    tag_30:\n      0x00\n        /* \"#utility.yul\":5728:5730   */\n      0x20\n        /* \"#utility.yul\":5717:5726   */\n      dup3\n        /* \"#utility.yul\":5713:5731   */\n      add\n        /* \"#utility.yul\":5705:5731   */\n      swap1\n      pop\n        /* \"#utility.yul\":5777:5786   */\n      dup2\n        /* \"#utility.yul\":5771:5775   */\n      dup2\n        /* \"#utility.yul\":5767:5787   */\n      sub\n        /* \"#utility.yul\":5763:5764   */\n      0x00\n        /* \"#utility.yul\":5752:5761   */\n      dup4\n        /* \"#utility.yul\":5748:5765   */\n      add\n        /* \"#utility.yul\":5741:5788   */\n      mstore\n        /* \"#utility.yul\":5805:5936   */\n      tag_127\n        /* \"#utility.yul\":5931:5935   */\n      dup2\n        /* \"#utility.yul\":5805:5936   */\n      tag_98\n      jump\t// in\n    tag_127:\n        /* \"#utility.yul\":5797:5936   */\n      swap1\n      pop\n        /* \"#utility.yul\":5695:5943   */\n      swap2\n      swap1\n      pop\n      jump\t// out\n        /* \"#utility.yul\":5949:6368   */\n    tag_27:\n      0x00\n        /* \"#utility.yul\":6153:6155   */\n      0x20\n        /* \"#utility.yul\":6142:6151   */\n      dup3\n        /* \"#utility.yul\":6138:6156   */\n      add\n        /* \"#utility.yul\":6130:6156   */\n      swap1\n      pop\n        /* \"#utility.yul\":6202:6211   */\n      dup2\n        /* \"#utility.yul\":6196:6200   */\n      dup2\n        /* \"#utility.yul\":6192:6212   */\n      sub\n        /* \"#utility.yul\":6188:6189   */\n      0x00\n        /* \"#utility.yul\":6177:6186   */\n      dup4\n        /* \"#utility.yul\":6173:6190   */\n      add\n        /* \"#utility.yul\":6166:6213   */\n      mstore\n        /* \"#utility.yul\":6230:6361   */\n      tag_129\n        /* \"#utility.yul\":6356:6360   */\n      dup2\n        /* \"#utility.yul\":6230:6361   */\n      tag_101\n      jump\t// in\n    tag_129:\n        /* \"#utility.yul\":6222:6361   */\n      swap1\n      pop\n        /* \"#utility.yul\":6120:6368   */\n      swap2\n      swap1\n      pop\n      jump\t// out\n        /* \"#utility.yul\":6374:6596   */\n    tag_39:\n      0x00\n        /* \"#utility.yul\":6505:6507   */\n      0x20\n        /* \"#utility.yul\":6494:6503   */\n      dup3\n        /* \"#utility.yul\":6490:6508   */\n      add\n        /* \"#utility.yul\":6482:6508   */\n      swap1\n      pop\n        /* \"#utility.yul\":6518:6589   */\n      tag_131\n        /* \"#utility.yul\":6586:6587   */\n      0x00\n        /* \"#utility.yul\":6575:6584   */\n      dup4\n        /* \"#utility.yul\":6571:6588   */\n      add\n        /* \"#utility.yul\":6562:6568   */\n      dup5\n        /* \"#utility.yul\":6518:6589   */\n      tag_104\n      jump\t// in\n    tag_131:\n        /* \"#utility.yul\":6472:6596   */\n      swap3\n      swap2\n      pop\n      pop\n      jump\t// out\n        /* \"#utility.yul\":6602:6771   */\n    tag_94:\n      0x00\n        /* \"#utility.yul\":6720:6726   */\n      dup3\n        /* \"#utility.yul\":6715:6718   */\n      dup3\n        /* \"#utility.yul\":6708:6727   */\n      mstore\n        /* \"#utility.yul\":6760:6764   */\n      0x20\n        /* \"#utility.yul\":6755:6758   */\n      dup3\n        /* \"#utility.yul\":6751:6765   */\n      add\n        /* \"#utility.yul\":6736:6765   */\n      swap1\n      pop\n        /* \"#utility.yul\":6698:6771   */\n      swap3\n      swap2\n      pop\n      pop\n      jump\t// out\n        /* \"#utility.yul\":6777:6873   */\n    tag_86:\n      0x00\n        /* \"#utility.yul\":6843:6867   */\n      tag_134\n        /* \"#utility.yul\":6861:6866   */\n      dup3\n        /* \"#utility.yul\":6843:6867   */\n      tag_135\n      jump\t// in\n    tag_134:\n        /* \"#utility.yul\":6832:6867   */\n      swap1\n      pop\n        /* \"#utility.yul\":6822:6873   */\n      swap2\n      swap1\n      pop\n      jump\t// out\n        /* \"#utility.yul\":6879:6969   */\n    tag_136:\n      0x00\n        /* \"#utility.yul\":6956:6961   */\n      dup2\n        /* \"#utility.yul\":6949:6962   */\n      iszero\n        /* \"#utility.yul\":6942:6963   */\n      iszero\n        /* \"#utility.yul\":6931:6963   */\n      swap1\n      pop\n        /* \"#utility.yul\":6921:6969   */\n      swap2\n      swap1\n      pop\n      jump\t// out\n        /* \"#utility.yul\":6975:7101   */\n    tag_135:\n      0x00\n        /* \"#utility.yul\":7052:7094   */\n      0xffffffffffffffffffffffffffffffffffffffff\n        /* \"#utility.yul\":7045:7050   */\n      dup3\n        /* \"#utility.yul\":7041:7095   */\n      and\n        /* \"#utility.yul\":7030:7095   */\n      swap1\n      pop\n        /* \"#utility.yul\":7020:7101   */\n      swap2\n      swap1\n      pop\n      jump\t// out\n        /* \"#utility.yul\":7107:7184   */\n    tag_107:\n      0x00\n        /* \"#utility.yul\":7173:7178   */\n      dup2\n        /* \"#utility.yul\":7162:7178   */\n      swap1\n      pop\n        /* \"#utility.yul\":7152:7184   */\n      swap2\n      swap1\n      pop\n      jump\t// out\n        /* \"#utility.yul\":7190:7342   */\n    tag_90:\n      0x00\n        /* \"#utility.yul\":7286:7336   */\n      tag_141\n        /* \"#utility.yul\":7330:7335   */\n      dup3\n        /* \"#utility.yul\":7286:7336   */\n      tag_142\n      jump\t// in\n    tag_141:\n        /* \"#utility.yul\":7273:7336   */\n      swap1\n      pop\n        /* \"#utility.yul\":7263:7342   */\n      swap2\n      swap1\n      pop\n      jump\t// out\n        /* \"#utility.yul\":7348:7474   */\n    tag_142:\n      0x00\n        /* \"#utility.yul\":7444:7468   */\n      tag_144\n        /* \"#utility.yul\":7462:7467   */\n      dup3\n        /* \"#utility.yul\":7444:7468   */\n      tag_135\n      jump\t// in\n    tag_144:\n        /* \"#utility.yul\":7431:7468   */\n      swap1\n      pop\n        /* \"#utility.yul\":7421:7474   */\n      swap2\n      swap1\n      pop\n      jump\t// out\n        /* \"#utility.yul\":7480:7596   */\n    tag_66:\n        /* \"#utility.yul\":7550:7571   */\n      tag_146\n        /* \"#utility.yul\":7565:7570   */\n      dup2\n        /* \"#utility.yul\":7550:7571   */\n      tag_136\n      jump\t// in\n    tag_146:\n        /* \"#utility.yul\":7543:7548   */\n      dup2\n        /* \"#utility.yul\":7540:7572   */\n      eq\n        /* \"#utility.yul\":7530:7532   */\n      tag_147\n      jumpi\n        /* \"#utility.yul\":7586:7587   */\n      0x00\n        /* \"#utility.yul\":7583:7584   */\n      dup1\n        /* \"#utility.yul\":7576:7588   */\n      revert\n        /* \"#utility.yul\":7530:7532   */\n    tag_147:\n        /* \"#utility.yul\":7520:7596   */\n      pop\n      jump\t// out\n        /* \"#utility.yul\":7602:7724   */\n    tag_70:\n        /* \"#utility.yul\":7675:7699   */\n      tag_149\n        /* \"#utility.yul\":7693:7698   */\n      dup2\n        /* \"#utility.yul\":7675:7699   */\n      tag_107\n      jump\t// in\n    tag_149:\n        /* \"#utility.yul\":7668:7673   */\n      dup2\n        /* \"#utility.yul\":7665:7700   */\n      eq\n        /* \"#utility.yul\":7655:7657   */\n      tag_150\n      jumpi\n        /* \"#utility.yul\":7714:7715   */\n      0x00\n        /* \"#utility.yul\":7711:7712   */\n      dup1\n        /* \"#utility.yul\":7704:7716   */\n      revert\n        /* \"#utility.yul\":7655:7657   */\n    tag_150:\n        /* \"#utility.yul\":7645:7724   */\n      pop\n      jump\t// out\n\n    auxdata: 0xa26469706673582212204175cd9508c8ad3600d2f18695329abce6de147fd4774e87c249f68723329b3164736f6c63430008000033\n}\n\nsub_1: assembly {\n        /* \"test2.sol\":728:2524  contract ERC20Basic is IERC20 {... */\n      mstore(0x40, 0x80)\n        /* \"test2.sol\":1028:1036  10 ether */\n      0x8ac7230489e80000\n        /* \"test2.sol\":1005:1036  uint256 totalSupply_ = 10 ether */\n      0x02\n      sstore\n        /* \"test2.sol\":1043:1105  constructor() {... */\n      callvalue\n      dup1\n      iszero\n      tag_1\n      jumpi\n      0x00\n      dup1\n      revert\n    tag_1:\n      pop\n        /* \"test2.sol\":1086:1098  totalSupply_ */\n      sload(0x02)\n        /* \"test2.sol\":1063:1071  balances */\n      0x00\n        /* \"test2.sol\":1063:1083  balances[msg.sender] */\n      dup1\n        /* \"test2.sol\":1072:1082  msg.sender */\n      caller\n        /* \"test2.sol\":1063:1083  balances[msg.sender] */\n      0xffffffffffffffffffffffffffffffffffffffff\n      and\n      0xffffffffffffffffffffffffffffffffffffffff\n      and\n      dup2\n      mstore\n      0x20\n      add\n      swap1\n      dup2\n      mstore\n      0x20\n      add\n      0x00\n      keccak256\n        /* \"test2.sol\":1063:1098  balances[msg.sender] = totalSupply_ */\n      dup2\n      swap1\n      sstore\n      pop\n        /* \"test2.sol\":728:2524  contract ERC20Basic is IERC20 {... */\n      dataSize(sub_0)\n      dup1\n      dataOffset(sub_0)\n      0x00\n      codecopy\n      0x00\n      return\n    stop\n\n    sub_0: assembly {\n            /* \"test2.sol\":728:2524  contract ERC20Basic is IERC20 {... */\n          mstore(0x40, 0x80)\n          callvalue\n          dup1\n          iszero\n          tag_1\n          jumpi\n          0x00\n          dup1\n          revert\n        tag_1:\n          pop\n          jumpi(tag_2, lt(calldatasize, 0x04))\n          shr(0xe0, calldataload(0x00))\n          dup1\n          0x313ce567\n          gt\n          tag_12\n          jumpi\n          dup1\n          0x313ce567\n          eq\n          tag_7\n          jumpi\n          dup1\n          0x70a08231\n          eq\n          tag_8\n          jumpi\n          dup1\n          0x95d89b41\n          eq\n          tag_9\n          jumpi\n          dup1\n          0xa9059cbb\n          eq\n          tag_10\n          jumpi\n          dup1\n          0xdd62ed3e\n          eq\n          tag_11\n          jumpi\n          jump(tag_2)\n        tag_12:\n          dup1\n          0x06fdde03\n          eq\n          tag_3\n          jumpi\n          dup1\n          0x095ea7b3\n          eq\n          tag_4\n          jumpi\n          dup1\n          0x18160ddd\n          eq\n          tag_5\n          jumpi\n          dup1\n          0x23b872dd\n          eq\n          tag_6\n          jumpi\n        tag_2:\n          0x00\n          dup1\n          revert\n            /* \"test2.sol\":765:807  string public constant name = \"ERC20Basic\" */\n        tag_3:\n          tag_13\n          tag_14\n          jump\t// in\n        tag_13:\n          mload(0x40)\n          tag_15\n          swap2\n          swap1\n          tag_16\n          jump\t// in\n        tag_15:\n          mload(0x40)\n          dup1\n          swap2\n          sub\n          swap1\n          return\n            /* \"test2.sol\":1689:1909  function approve(address delegate, uint256 numTokens) public override returns (bool) {... */\n        tag_4:\n          tag_17\n          0x04\n          dup1\n          calldatasize\n          sub\n          dup2\n          add\n          swap1\n          tag_18\n          swap2\n          swap1\n          tag_19\n          jump\t// in\n        tag_18:\n          tag_20\n          jump\t// in\n        tag_17:\n          mload(0x40)\n          tag_21\n          swap2\n          swap1\n          tag_22\n          jump\t// in\n        tag_21:\n          mload(0x40)\n          dup1\n          swap2\n          sub\n          swap1\n          return\n            /* \"test2.sol\":1111:1205  function totalSupply() public override view returns (uint256) {... */\n        tag_5:\n          tag_23\n          tag_24\n          jump\t// in\n        tag_23:\n          mload(0x40)\n          tag_25\n          swap2\n          swap1\n          tag_26\n          jump\t// in\n        tag_25:\n          mload(0x40)\n          dup1\n          swap2\n          sub\n          swap1\n          return\n            /* \"test2.sol\":2057:2522  function transferFrom(address owner, address buyer, uint256 numTokens) public override returns (bool) {... */\n        tag_6:\n          tag_27\n          0x04\n          dup1\n          calldatasize\n          sub\n          dup2\n          add\n          swap1\n          tag_28\n          swap2\n          swap1\n          tag_29\n          jump\t// in\n        tag_28:\n          tag_30\n          jump\t// in\n        tag_27:\n          mload(0x40)\n          tag_31\n          swap2\n          swap1\n          tag_22\n          jump\t// in\n        tag_31:\n          mload(0x40)\n          dup1\n          swap2\n          sub\n          swap1\n          return\n            /* \"test2.sol\":856:891  uint8 public constant decimals = 18 */\n        tag_7:\n          tag_32\n          tag_33\n          jump\t// in\n        tag_32:\n          mload(0x40)\n          tag_34\n          swap2\n          swap1\n          tag_35\n          jump\t// in\n        tag_34:\n          mload(0x40)\n          dup1\n          swap2\n          sub\n          swap1\n          return\n            /* \"test2.sol\":1211:1333  function balanceOf(address tokenOwner) public override view returns (uint256) {... */\n        tag_8:\n          tag_36\n          0x04\n          dup1\n          calldatasize\n          sub\n          dup2\n          add\n          swap1\n          tag_37\n          swap2\n          swap1\n          tag_38\n          jump\t// in\n        tag_37:\n          tag_39\n          jump\t// in\n        tag_36:\n          mload(0x40)\n          tag_40\n          swap2\n          swap1\n          tag_26\n          jump\t// in\n        tag_40:\n          mload(0x40)\n          dup1\n          swap2\n          sub\n          swap1\n          return\n            /* \"test2.sol\":813:850  string public constant symbol = \"ERC\" */\n        tag_9:\n          tag_41\n          tag_42\n          jump\t// in\n        tag_41:\n          mload(0x40)\n          tag_43\n          swap2\n          swap1\n          tag_16\n          jump\t// in\n        tag_43:\n          mload(0x40)\n          dup1\n          swap2\n          sub\n          swap1\n          return\n            /* \"test2.sol\":1339:1683  function transfer(address receiver, uint256 numTokens) public override returns (bool) {... */\n        tag_10:\n          tag_44\n          0x04\n          dup1\n          calldatasize\n          sub\n          dup2\n          add\n          swap1\n          tag_45\n          swap2\n          swap1\n          tag_19\n          jump\t// in\n        tag_45:\n          tag_46\n          jump\t// in\n        tag_44:\n          mload(0x40)\n          tag_47\n          swap2\n          swap1\n          tag_22\n          jump\t// in\n        tag_47:\n          mload(0x40)\n          dup1\n          swap2\n          sub\n          swap1\n          return\n            /* \"test2.sol\":1915:2051  function allowance(address owner, address delegate) public override view returns (uint) {... */\n        tag_11:\n          tag_48\n          0x04\n          dup1\n          calldatasize\n          sub\n          dup2\n          add\n          swap1\n          tag_49\n          swap2\n          swap1\n          tag_50\n          jump\t// in\n        tag_49:\n          tag_51\n          jump\t// in\n        tag_48:\n          mload(0x40)\n          tag_52\n          swap2\n          swap1\n          tag_26\n          jump\t// in\n        tag_52:\n          mload(0x40)\n          dup1\n          swap2\n          sub\n          swap1\n          return\n            /* \"test2.sol\":765:807  string public constant name = \"ERC20Basic\" */\n        tag_14:\n          mload(0x40)\n          dup1\n          0x40\n          add\n          0x40\n          mstore\n          dup1\n          0x0a\n          dup2\n          mstore\n          0x20\n          add\n          0x4552433230426173696300000000000000000000000000000000000000000000\n          dup2\n          mstore\n          pop\n          dup2\n          jump\t// out\n            /* \"test2.sol\":1689:1909  function approve(address delegate, uint256 numTokens) public override returns (bool) {... */\n        tag_20:\n            /* \"test2.sol\":1768:1772  bool */\n          0x00\n            /* \"test2.sol\":1816:1825  numTokens */\n          dup2\n            /* \"test2.sol\":1784:1791  allowed */\n          0x01\n            /* \"test2.sol\":1784:1803  allowed[msg.sender] */\n          0x00\n            /* \"test2.sol\":1792:1802  msg.sender */\n          caller\n            /* \"test2.sol\":1784:1803  allowed[msg.sender] */\n          0xffffffffffffffffffffffffffffffffffffffff\n          and\n          0xffffffffffffffffffffffffffffffffffffffff\n          and\n          dup2\n          mstore\n          0x20\n          add\n          swap1\n          dup2\n          mstore\n          0x20\n          add\n          0x00\n          keccak256\n            /* \"test2.sol\":1784:1813  allowed[msg.sender][delegate] */\n          0x00\n            /* \"test2.sol\":1804:1812  delegate */\n          dup6\n            /* \"test2.sol\":1784:1813  allowed[msg.sender][delegate] */\n          0xffffffffffffffffffffffffffffffffffffffff\n          and\n          0xffffffffffffffffffffffffffffffffffffffff\n          and\n          dup2\n          mstore\n          0x20\n          add\n          swap1\n          dup2\n          mstore\n          0x20\n          add\n          0x00\n          keccak256\n            /* \"test2.sol\":1784:1825  allowed[msg.sender][delegate] = numTokens */\n          dup2\n          swap1\n          sstore\n          pop\n            /* \"test2.sol\":1861:1869  delegate */\n          dup3\n            /* \"test2.sol\":1840:1881  Approval(msg.sender, delegate, numTokens) */\n          0xffffffffffffffffffffffffffffffffffffffff\n          and\n            /* \"test2.sol\":1849:1859  msg.sender */\n          caller\n            /* \"test2.sol\":1840:1881  Approval(msg.sender, delegate, numTokens) */\n          0xffffffffffffffffffffffffffffffffffffffff\n          and\n          0x8c5be1e5ebec7d5bd14f71427d1e84f3dd0314c0f7b2291e5b200ac8c7c3b925\n            /* \"test2.sol\":1871:1880  numTokens */\n          dup5\n            /* \"test2.sol\":1840:1881  Approval(msg.sender, delegate, numTokens) */\n          mload(0x40)\n          tag_54\n          swap2\n          swap1\n          tag_26\n          jump\t// in\n        tag_54:\n          mload(0x40)\n          dup1\n          swap2\n          sub\n          swap1\n          log3\n            /* \"test2.sol\":1898:1902  true */\n          0x01\n            /* \"test2.sol\":1891:1902  return true */\n          swap1\n          pop\n            /* \"test2.sol\":1689:1909  function approve(address delegate, uint256 numTokens) public override returns (bool) {... */\n          swap3\n          swap2\n          pop\n          pop\n          jump\t// out\n            /* \"test2.sol\":1111:1205  function totalSupply() public override view returns (uint256) {... */\n        tag_24:\n            /* \"test2.sol\":1164:1171  uint256 */\n          0x00\n            /* \"test2.sol\":1186:1198  totalSupply_ */\n          sload(0x02)\n            /* \"test2.sol\":1179:1198  return totalSupply_ */\n          swap1\n          pop\n            /* \"test2.sol\":1111:1205  function totalSupply() public override view returns (uint256) {... */\n          swap1\n          jump\t// out\n            /* \"test2.sol\":2057:2522  function transferFrom(address owner, address buyer, uint256 numTokens) public override returns (bool) {... */\n        tag_30:\n            /* \"test2.sol\":2153:2157  bool */\n          0x00\n            /* \"test2.sol\":2190:2198  balances */\n          dup1\n            /* \"test2.sol\":2190:2205  balances[owner] */\n          0x00\n            /* \"test2.sol\":2199:2204  owner */\n          dup6\n            /* \"test2.sol\":2190:2205  balances[owner] */\n          0xffffffffffffffffffffffffffffffffffffffff\n          and\n          0xffffffffffffffffffffffffffffffffffffffff\n          and\n          dup2\n          mstore\n          0x20\n          add\n          swap1\n          dup2\n          mstore\n          0x20\n          add\n          0x00\n          keccak256\n          sload\n            /* \"test2.sol\":2177:2186  numTokens */\n          dup3\n            /* \"test2.sol\":2177:2205  numTokens <= balances[owner] */\n          gt\n          iszero\n            /* \"test2.sol\":2169:2206  require(numTokens <= balances[owner]) */\n          tag_57\n          jumpi\n          0x00\n          dup1\n          revert\n        tag_57:\n            /* \"test2.sol\":2237:2244  allowed */\n          0x01\n            /* \"test2.sol\":2237:2251  allowed[owner] */\n          0x00\n            /* \"test2.sol\":2245:2250  owner */\n          dup6\n            /* \"test2.sol\":2237:2251  allowed[owner] */\n          0xffffffffffffffffffffffffffffffffffffffff\n          and\n          0xffffffffffffffffffffffffffffffffffffffff\n          and\n          dup2\n          mstore\n          0x20\n          add\n          swap1\n          dup2\n          mstore\n          0x20\n          add\n          0x00\n          keccak256\n            /* \"test2.sol\":2237:2263  allowed[owner][msg.sender] */\n          0x00\n            /* \"test2.sol\":2252:2262  msg.sender */\n          caller\n            /* \"test2.sol\":2237:2263  allowed[owner][msg.sender] */\n          0xffffffffffffffffffffffffffffffffffffffff\n          and\n          0xffffffffffffffffffffffffffffffffffffffff\n          and\n          dup2\n          mstore\n          0x20\n          add\n          swap1\n          dup2\n          mstore\n          0x20\n          add\n          0x00\n          keccak256\n          sload\n            /* \"test2.sol\":2224:2233  numTokens */\n          dup3\n            /* \"test2.sol\":2224:2263  numTokens <= allowed[owner][msg.sender] */\n          gt\n          iszero\n            /* \"test2.sol\":2216:2264  require(numTokens <= allowed[owner][msg.sender]) */\n          tag_58\n          jumpi\n          0x00\n          dup1\n          revert\n        tag_58:\n            /* \"test2.sol\":2309:2318  numTokens */\n          dup2\n            /* \"test2.sol\":2293:2301  balances */\n          0x00\n            /* \"test2.sol\":2293:2308  balances[owner] */\n          dup1\n            /* \"test2.sol\":2302:2307  owner */\n          dup7\n            /* \"test2.sol\":2293:2308  balances[owner] */\n          0xffffffffffffffffffffffffffffffffffffffff\n          and\n          0xffffffffffffffffffffffffffffffffffffffff\n          and\n          dup2\n          mstore\n          0x20\n          add\n          swap1\n          dup2\n          mstore\n          0x20\n          add\n          0x00\n          keccak256\n          sload\n            /* \"test2.sol\":2293:2318  balances[owner]-numTokens */\n          tag_59\n          swap2\n          swap1\n          tag_60\n          jump\t// in\n        tag_59:\n            /* \"test2.sol\":2275:2283  balances */\n          0x00\n            /* \"test2.sol\":2275:2290  balances[owner] */\n          dup1\n            /* \"test2.sol\":2284:2289  owner */\n          dup7\n            /* \"test2.sol\":2275:2290  balances[owner] */\n          0xffffffffffffffffffffffffffffffffffffffff\n          and\n          0xffffffffffffffffffffffffffffffffffffffff\n          and\n          dup2\n          mstore\n          0x20\n          add\n          swap1\n          dup2\n          mstore\n          0x20\n          add\n          0x00\n          keccak256\n            /* \"test2.sol\":2275:2318  balances[owner] = balances[owner]-numTokens */\n          dup2\n          swap1\n          sstore\n          pop\n            /* \"test2.sol\":2384:2393  numTokens */\n          dup2\n            /* \"test2.sol\":2357:2364  allowed */\n          0x01\n            /* \"test2.sol\":2357:2371  allowed[owner] */\n          0x00\n            /* \"test2.sol\":2365:2370  owner */\n          dup7\n            /* \"test2.sol\":2357:2371  allowed[owner] */\n          0xffffffffffffffffffffffffffffffffffffffff\n          and\n          0xffffffffffffffffffffffffffffffffffffffff\n          and\n          dup2\n          mstore\n          0x20\n          add\n          swap1\n          dup2\n          mstore\n          0x20\n          add\n          0x00\n          keccak256\n            /* \"test2.sol\":2357:2383  allowed[owner][msg.sender] */\n          0x00\n            /* \"test2.sol\":2372:2382  msg.sender */\n          caller\n            /* \"test2.sol\":2357:2383  allowed[owner][msg.sender] */\n          0xffffffffffffffffffffffffffffffffffffffff\n          and\n          0xffffffffffffffffffffffffffffffffffffffff\n          and\n          dup2\n          mstore\n          0x20\n          add\n          swap1\n          dup2\n          mstore\n          0x20\n          add\n          0x00\n          keccak256\n          sload\n            /* \"test2.sol\":2357:2393  allowed[owner][msg.sender]-numTokens */\n          tag_61\n          swap2\n          swap1\n          tag_60\n          jump\t// in\n        tag_61:\n            /* \"test2.sol\":2328:2335  allowed */\n          0x01\n            /* \"test2.sol\":2328:2342  allowed[owner] */\n          0x00\n            /* \"test2.sol\":2336:2341  owner */\n          dup7\n            /* \"test2.sol\":2328:2342  allowed[owner] */\n          0xffffffffffffffffffffffffffffffffffffffff\n          and\n          0xffffffffffffffffffffffffffffffffffffffff\n          and\n          dup2\n          mstore\n          0x20\n          add\n          swap1\n          dup2\n          mstore\n          0x20\n          add\n          0x00\n          keccak256\n            /* \"test2.sol\":2328:2354  allowed[owner][msg.sender] */\n          0x00\n            /* \"test2.sol\":2343:2353  msg.sender */\n          caller\n            /* \"test2.sol\":2328:2354  allowed[owner][msg.sender] */\n          0xffffffffffffffffffffffffffffffffffffffff\n          and\n          0xffffffffffffffffffffffffffffffffffffffff\n          and\n          dup2\n          mstore\n          0x20\n          add\n          swap1\n          dup2\n          mstore\n          0x20\n          add\n          0x00\n          keccak256\n            /* \"test2.sol\":2328:2393  allowed[owner][msg.sender] = allowed[owner][msg.sender]-numTokens */\n          dup2\n          swap1\n          sstore\n          pop\n            /* \"test2.sol\":2437:2446  numTokens */\n          dup2\n            /* \"test2.sol\":2421:2429  balances */\n          0x00\n            /* \"test2.sol\":2421:2436  balances[buyer] */\n          dup1\n            /* \"test2.sol\":2430:2435  buyer */\n          dup6\n            /* \"test2.sol\":2421:2436  balances[buyer] */\n          0xffffffffffffffffffffffffffffffffffffffff\n          and\n          0xffffffffffffffffffffffffffffffffffffffff\n          and\n          dup2\n          mstore\n          0x20\n          add\n          swap1\n          dup2\n          mstore\n          0x20\n          add\n          0x00\n          keccak256\n          sload\n            /* \"test2.sol\":2421:2446  balances[buyer]+numTokens */\n          tag_62\n          swap2\n          swap1\n          tag_63\n          jump\t// in\n        tag_62:\n            /* \"test2.sol\":2403:2411  balances */\n          0x00\n            /* \"test2.sol\":2403:2418  balances[buyer] */\n          dup1\n            /* \"test2.sol\":2412:2417  buyer */\n          dup6\n            /* \"test2.sol\":2403:2418  balances[buyer] */\n          0xffffffffffffffffffffffffffffffffffffffff\n          and\n          0xffffffffffffffffffffffffffffffffffffffff\n          and\n          dup2\n          mstore\n          0x20\n          add\n          swap1\n          dup2\n          mstore\n          0x20\n          add\n          0x00\n          keccak256\n            /* \"test2.sol\":2403:2446  balances[buyer] = balances[buyer]+numTokens */\n          dup2\n          swap1\n          sstore\n          pop\n            /* \"test2.sol\":2477:2482  buyer */\n          dup3\n            /* \"test2.sol\":2461:2494  Transfer(owner, buyer, numTokens) */\n          0xffffffffffffffffffffffffffffffffffffffff\n          and\n            /* \"test2.sol\":2470:2475  owner */\n          dup5\n            /* \"test2.sol\":2461:2494  Transfer(owner, buyer, numTokens) */\n          0xffffffffffffffffffffffffffffffffffffffff\n          and\n          0xddf252ad1be2c89b69c2b068fc378daa952ba7f163c4a11628f55a4df523b3ef\n            /* \"test2.sol\":2484:2493  numTokens */\n          dup5\n            /* \"test2.sol\":2461:2494  Transfer(owner, buyer, numTokens) */\n          mload(0x40)\n          tag_64\n          swap2\n          swap1\n          tag_26\n          jump\t// in\n        tag_64:\n          mload(0x40)\n          dup1\n          swap2\n          sub\n          swap1\n          log3\n            /* \"test2.sol\":2511:2515  true */\n          0x01\n            /* \"test2.sol\":2504:2515  return true */\n          swap1\n          pop\n            /* \"test2.sol\":2057:2522  function transferFrom(address owner, address buyer, uint256 numTokens) public override returns (bool) {... */\n          swap4\n          swap3\n          pop\n          pop\n          pop\n          jump\t// out\n            /* \"test2.sol\":856:891  uint8 public constant decimals = 18 */\n        tag_33:\n            /* \"test2.sol\":889:891  18 */\n          0x12\n            /* \"test2.sol\":856:891  uint8 public constant decimals = 18 */\n          dup2\n          jump\t// out\n            /* \"test2.sol\":1211:1333  function balanceOf(address tokenOwner) public override view returns (uint256) {... */\n        tag_39:\n            /* \"test2.sol\":1280:1287  uint256 */\n          0x00\n            /* \"test2.sol\":1306:1314  balances */\n          dup1\n            /* \"test2.sol\":1306:1326  balances[tokenOwner] */\n          0x00\n            /* \"test2.sol\":1315:1325  tokenOwner */\n          dup4\n            /* \"test2.sol\":1306:1326  balances[tokenOwner] */\n          0xffffffffffffffffffffffffffffffffffffffff\n          and\n          0xffffffffffffffffffffffffffffffffffffffff\n          and\n          dup2\n          mstore\n          0x20\n          add\n          swap1\n          dup2\n          mstore\n          0x20\n          add\n          0x00\n          keccak256\n          sload\n            /* \"test2.sol\":1299:1326  return balances[tokenOwner] */\n          swap1\n          pop\n            /* \"test2.sol\":1211:1333  function balanceOf(address tokenOwner) public override view returns (uint256) {... */\n          swap2\n          swap1\n          pop\n          jump\t// out\n            /* \"test2.sol\":813:850  string public constant symbol = \"ERC\" */\n        tag_42:\n          mload(0x40)\n          dup1\n          0x40\n          add\n          0x40\n          mstore\n          dup1\n          0x03\n          dup2\n          mstore\n          0x20\n          add\n          0x4552430000000000000000000000000000000000000000000000000000000000\n          dup2\n          mstore\n          pop\n          dup2\n          jump\t// out\n            /* \"test2.sol\":1339:1683  function transfer(address receiver, uint256 numTokens) public override returns (bool) {... */\n        tag_46:\n            /* \"test2.sol\":1419:1423  bool */\n          0x00\n            /* \"test2.sol\":1456:1464  balances */\n          dup1\n            /* \"test2.sol\":1456:1476  balances[msg.sender] */\n          0x00\n            /* \"test2.sol\":1465:1475  msg.sender */\n          caller\n            /* \"test2.sol\":1456:1476  balances[msg.sender] */\n          0xffffffffffffffffffffffffffffffffffffffff\n          and\n          0xffffffffffffffffffffffffffffffffffffffff\n          and\n          dup2\n          mstore\n          0x20\n          add\n          swap1\n          dup2\n          mstore\n          0x20\n          add\n          0x00\n          keccak256\n          sload\n            /* \"test2.sol\":1443:1452  numTokens */\n          dup3\n            /* \"test2.sol\":1443:1476  numTokens <= balances[msg.sender] */\n          gt\n          iszero\n            /* \"test2.sol\":1435:1477  require(numTokens <= balances[msg.sender]) */\n          tag_67\n          jumpi\n          0x00\n          dup1\n          revert\n        tag_67:\n            /* \"test2.sol\":1531:1540  numTokens */\n          dup2\n            /* \"test2.sol\":1510:1518  balances */\n          0x00\n            /* \"test2.sol\":1510:1530  balances[msg.sender] */\n          dup1\n            /* \"test2.sol\":1519:1529  msg.sender */\n          caller\n            /* \"test2.sol\":1510:1530  balances[msg.sender] */\n          0xffffffffffffffffffffffffffffffffffffffff\n          and\n          0xffffffffffffffffffffffffffffffffffffffff\n          and\n          dup2\n          mstore\n          0x20\n          add\n          swap1\n          dup2\n          mstore\n          0x20\n          add\n          0x00\n          keccak256\n          sload\n            /* \"test2.sol\":1510:1540  balances[msg.sender]-numTokens */\n          tag_68\n          swap2\n          swap1\n          tag_60\n          jump\t// in\n        tag_68:\n            /* \"test2.sol\":1487:1495  balances */\n          0x00\n            /* \"test2.sol\":1487:1507  balances[msg.sender] */\n          dup1\n            /* \"test2.sol\":1496:1506  msg.sender */\n          caller\n            /* \"test2.sol\":1487:1507  balances[msg.sender] */\n          0xffffffffffffffffffffffffffffffffffffffff\n          and\n          0xffffffffffffffffffffffffffffffffffffffff\n          and\n          dup2\n          mstore\n          0x20\n          add\n          swap1\n          dup2\n          mstore\n          0x20\n          add\n          0x00\n          keccak256\n            /* \"test2.sol\":1487:1540  balances[msg.sender] = balances[msg.sender]-numTokens */\n          dup2\n          swap1\n          sstore\n          pop\n            /* \"test2.sol\":1590:1599  numTokens */\n          dup2\n            /* \"test2.sol\":1571:1579  balances */\n          0x00\n            /* \"test2.sol\":1571:1589  balances[receiver] */\n          dup1\n            /* \"test2.sol\":1580:1588  receiver */\n          dup6\n            /* \"test2.sol\":1571:1589  balances[receiver] */\n          0xffffffffffffffffffffffffffffffffffffffff\n          and\n          0xffffffffffffffffffffffffffffffffffffffff\n          and\n          dup2\n          mstore\n          0x20\n          add\n          swap1\n          dup2\n          mstore\n          0x20\n          add\n          0x00\n          keccak256\n          sload\n            /* \"test2.sol\":1571:1599  balances[receiver]+numTokens */\n          tag_69\n          swap2\n          swap1\n          tag_63\n          jump\t// in\n        tag_69:\n            /* \"test2.sol\":1550:1558  balances */\n          0x00\n            /* \"test2.sol\":1550:1568  balances[receiver] */\n          dup1\n            /* \"test2.sol\":1559:1567  receiver */\n          dup6\n            /* \"test2.sol\":1550:1568  balances[receiver] */\n          0xffffffffffffffffffffffffffffffffffffffff\n          and\n          0xffffffffffffffffffffffffffffffffffffffff\n          and\n          dup2\n          mstore\n          0x20\n          add\n          swap1\n          dup2\n          mstore\n          0x20\n          add\n          0x00\n          keccak256\n            /* \"test2.sol\":1550:1599  balances[receiver] = balances[receiver]+numTokens */\n          dup2\n          swap1\n          sstore\n          pop\n            /* \"test2.sol\":1635:1643  receiver */\n          dup3\n            /* \"test2.sol\":1614:1655  Transfer(msg.sender, receiver, numTokens) */\n          0xffffffffffffffffffffffffffffffffffffffff\n          and\n            /* \"test2.sol\":1623:1633  msg.sender */\n          caller\n            /* \"test2.sol\":1614:1655  Transfer(msg.sender, receiver, numTokens) */\n          0xffffffffffffffffffffffffffffffffffffffff\n          and\n          0xddf252ad1be2c89b69c2b068fc378daa952ba7f163c4a11628f55a4df523b3ef\n            /* \"test2.sol\":1645:1654  numTokens */\n          dup5\n            /* \"test2.sol\":1614:1655  Transfer(msg.sender, receiver, numTokens) */\n          mload(0x40)\n          tag_70\n          swap2\n          swap1\n          tag_26\n          jump\t// in\n        tag_70:\n          mload(0x40)\n          dup1\n          swap2\n          sub\n          swap1\n          log3\n            /* \"test2.sol\":1672:1676  true */\n          0x01\n            /* \"test2.sol\":1665:1676  return true */\n          swap1\n          pop\n            /* \"test2.sol\":1339:1683  function transfer(address receiver, uint256 numTokens) public override returns (bool) {... */\n          swap3\n          swap2\n          pop\n          pop\n          jump\t// out\n            /* \"test2.sol\":1915:2051  function allowance(address owner, address delegate) public override view returns (uint) {... */\n        tag_51:\n            /* \"test2.sol\":1997:2001  uint */\n          0x00\n            /* \"test2.sol\":2020:2027  allowed */\n          0x01\n            /* \"test2.sol\":2020:2034  allowed[owner] */\n          0x00\n            /* \"test2.sol\":2028:2033  owner */\n          dup5\n            /* \"test2.sol\":2020:2034  allowed[owner] */\n          0xffffffffffffffffffffffffffffffffffffffff\n          and\n          0xffffffffffffffffffffffffffffffffffffffff\n          and\n          dup2\n          mstore\n          0x20\n          add\n          swap1\n          dup2\n          mstore\n          0x20\n          add\n          0x00\n          keccak256\n            /* \"test2.sol\":2020:2044  allowed[owner][delegate] */\n          0x00\n            /* \"test2.sol\":2035:2043  delegate */\n          dup4\n            /* \"test2.sol\":2020:2044  allowed[owner][delegate] */\n          0xffffffffffffffffffffffffffffffffffffffff\n          and\n          0xffffffffffffffffffffffffffffffffffffffff\n          and\n          dup2\n          mstore\n          0x20\n          add\n          swap1\n          dup2\n          mstore\n          0x20\n          add\n          0x00\n          keccak256\n          sload\n            /* \"test2.sol\":2013:2044  return allowed[owner][delegate] */\n          swap1\n          pop\n            /* \"test2.sol\":1915:2051  function allowance(address owner, address delegate) public override view returns (uint) {... */\n          swap3\n          swap2\n          pop\n          pop\n          jump\t// out\n            /* \"#utility.yul\":7:146   */\n        tag_73:\n          0x00\n            /* \"#utility.yul\":91:97   */\n          dup2\n            /* \"#utility.yul\":78:98   */\n          calldataload\n            /* \"#utility.yul\":69:98   */\n          swap1\n          pop\n            /* \"#utility.yul\":107:140   */\n          tag_75\n            /* \"#utility.yul\":134:139   */\n          dup2\n            /* \"#utility.yul\":107:140   */\n          tag_76\n          jump\t// in\n        tag_75:\n            /* \"#utility.yul\":59:146   */\n          swap3\n          swap2\n          pop\n          pop\n          jump\t// out\n            /* \"#utility.yul\":152:291   */\n        tag_77:\n          0x00\n            /* \"#utility.yul\":236:242   */\n          dup2\n            /* \"#utility.yul\":223:243   */\n          calldataload\n            /* \"#utility.yul\":214:243   */\n          swap1\n          pop\n            /* \"#utility.yul\":252:285   */\n          tag_79\n            /* \"#utility.yul\":279:284   */\n          dup2\n            /* \"#utility.yul\":252:285   */\n          tag_80\n          jump\t// in\n        tag_79:\n            /* \"#utility.yul\":204:291   */\n          swap3\n          swap2\n          pop\n          pop\n          jump\t// out\n            /* \"#utility.yul\":297:559   */\n        tag_38:\n          0x00\n            /* \"#utility.yul\":405:407   */\n          0x20\n            /* \"#utility.yul\":393:402   */\n          dup3\n            /* \"#utility.yul\":384:391   */\n          dup5\n            /* \"#utility.yul\":380:403   */\n          sub\n            /* \"#utility.yul\":376:408   */\n          slt\n            /* \"#utility.yul\":373:375   */\n          iszero\n          tag_82\n          jumpi\n            /* \"#utility.yul\":421:422   */\n          0x00\n            /* \"#utility.yul\":418:419   */\n          dup1\n            /* \"#utility.yul\":411:423   */\n          revert\n            /* \"#utility.yul\":373:375   */\n        tag_82:\n            /* \"#utility.yul\":464:465   */\n          0x00\n            /* \"#utility.yul\":489:542   */\n          tag_83\n            /* \"#utility.yul\":534:541   */\n          dup5\n            /* \"#utility.yul\":525:531   */\n          dup3\n            /* \"#utility.yul\":514:523   */\n          dup6\n            /* \"#utility.yul\":510:532   */\n          add\n            /* \"#utility.yul\":489:542   */\n          tag_73\n          jump\t// in\n        tag_83:\n            /* \"#utility.yul\":479:542   */\n          swap2\n          pop\n            /* \"#utility.yul\":435:552   */\n          pop\n            /* \"#utility.yul\":363:559   */\n          swap3\n          swap2\n          pop\n          pop\n          jump\t// out\n            /* \"#utility.yul\":565:972   */\n        tag_50:\n          0x00\n          dup1\n            /* \"#utility.yul\":690:692   */\n          0x40\n            /* \"#utility.yul\":678:687   */\n          dup4\n            /* \"#utility.yul\":669:676   */\n          dup6\n            /* \"#utility.yul\":665:688   */\n          sub\n            /* \"#utility.yul\":661:693   */\n          slt\n            /* \"#utility.yul\":658:660   */\n          iszero\n          tag_85\n          jumpi\n            /* \"#utility.yul\":706:707   */\n          0x00\n            /* \"#utility.yul\":703:704   */\n          dup1\n            /* \"#utility.yul\":696:708   */\n          revert\n            /* \"#utility.yul\":658:660   */\n        tag_85:\n            /* \"#utility.yul\":749:750   */\n          0x00\n            /* \"#utility.yul\":774:827   */\n          tag_86\n            /* \"#utility.yul\":819:826   */\n          dup6\n            /* \"#utility.yul\":810:816   */\n          dup3\n            /* \"#utility.yul\":799:808   */\n          dup7\n            /* \"#utility.yul\":795:817   */\n          add\n            /* \"#utility.yul\":774:827   */\n          tag_73\n          jump\t// in\n        tag_86:\n            /* \"#utility.yul\":764:827   */\n          swap3\n          pop\n            /* \"#utility.yul\":720:837   */\n          pop\n            /* \"#utility.yul\":876:878   */\n          0x20\n            /* \"#utility.yul\":902:955   */\n          tag_87\n            /* \"#utility.yul\":947:954   */\n          dup6\n            /* \"#utility.yul\":938:944   */\n          dup3\n            /* \"#utility.yul\":927:936   */\n          dup7\n            /* \"#utility.yul\":923:945   */\n          add\n            /* \"#utility.yul\":902:955   */\n          tag_73\n          jump\t// in\n        tag_87:\n            /* \"#utility.yul\":892:955   */\n          swap2\n          pop\n            /* \"#utility.yul\":847:965   */\n          pop\n            /* \"#utility.yul\":648:972   */\n          swap3\n          pop\n          swap3\n          swap1\n          pop\n          jump\t// out\n            /* \"#utility.yul\":978:1530   */\n        tag_29:\n          0x00\n          dup1\n          0x00\n            /* \"#utility.yul\":1120:1122   */\n          0x60\n            /* \"#utility.yul\":1108:1117   */\n          dup5\n            /* \"#utility.yul\":1099:1106   */\n          dup7\n            /* \"#utility.yul\":1095:1118   */\n          sub\n            /* \"#utility.yul\":1091:1123   */\n          slt\n            /* \"#utility.yul\":1088:1090   */\n          iszero\n          tag_89\n          jumpi\n            /* \"#utility.yul\":1136:1137   */\n          0x00\n            /* \"#utility.yul\":1133:1134   */\n          dup1\n            /* \"#utility.yul\":1126:1138   */\n          revert\n            /* \"#utility.yul\":1088:1090   */\n        tag_89:\n            /* \"#utility.yul\":1179:1180   */\n          0x00\n            /* \"#utility.yul\":1204:1257   */\n          tag_90\n            /* \"#utility.yul\":1249:1256   */\n          dup7\n            /* \"#utility.yul\":1240:1246   */\n          dup3\n            /* \"#utility.yul\":1229:1238   */\n          dup8\n            /* \"#utility.yul\":1225:1247   */\n          add\n            /* \"#utility.yul\":1204:1257   */\n          tag_73\n          jump\t// in\n        tag_90:\n            /* \"#utility.yul\":1194:1257   */\n          swap4\n          pop\n            /* \"#utility.yul\":1150:1267   */\n          pop\n            /* \"#utility.yul\":1306:1308   */\n          0x20\n            /* \"#utility.yul\":1332:1385   */\n          tag_91\n            /* \"#utility.yul\":1377:1384   */\n          dup7\n            /* \"#utility.yul\":1368:1374   */\n          dup3\n            /* \"#utility.yul\":1357:1366   */\n          dup8\n            /* \"#utility.yul\":1353:1375   */\n          add\n            /* \"#utility.yul\":1332:1385   */\n          tag_73\n          jump\t// in\n        tag_91:\n            /* \"#utility.yul\":1322:1385   */\n          swap3\n          pop\n            /* \"#utility.yul\":1277:1395   */\n          pop\n            /* \"#utility.yul\":1434:1436   */\n          0x40\n            /* \"#utility.yul\":1460:1513   */\n          tag_92\n            /* \"#utility.yul\":1505:1512   */\n          dup7\n            /* \"#utility.yul\":1496:1502   */\n          dup3\n            /* \"#utility.yul\":1485:1494   */\n          dup8\n            /* \"#utility.yul\":1481:1503   */\n          add\n            /* \"#utility.yul\":1460:1513   */\n          tag_77\n          jump\t// in\n        tag_92:\n            /* \"#utility.yul\":1450:1513   */\n          swap2\n          pop\n            /* \"#utility.yul\":1405:1523   */\n          pop\n            /* \"#utility.yul\":1078:1530   */\n          swap3\n          pop\n          swap3\n          pop\n          swap3\n          jump\t// out\n            /* \"#utility.yul\":1536:1943   */\n        tag_19:\n          0x00\n          dup1\n            /* \"#utility.yul\":1661:1663   */\n          0x40\n            /* \"#utility.yul\":1649:1658   */\n          dup4\n            /* \"#utility.yul\":1640:1647   */\n          dup6\n            /* \"#utility.yul\":1636:1659   */\n          sub\n            /* \"#utility.yul\":1632:1664   */\n          slt\n            /* \"#utility.yul\":1629:1631   */\n          iszero\n          tag_94\n          jumpi\n            /* \"#utility.yul\":1677:1678   */\n          0x00\n            /* \"#utility.yul\":1674:1675   */\n          dup1\n            /* \"#utility.yul\":1667:1679   */\n          revert\n            /* \"#utility.yul\":1629:1631   */\n        tag_94:\n            /* \"#utility.yul\":1720:1721   */\n          0x00\n            /* \"#utility.yul\":1745:1798   */\n          tag_95\n            /* \"#utility.yul\":1790:1797   */\n          dup6\n            /* \"#utility.yul\":1781:1787   */\n          dup3\n            /* \"#utility.yul\":1770:1779   */\n          dup7\n            /* \"#utility.yul\":1766:1788   */\n          add\n            /* \"#utility.yul\":1745:1798   */\n          tag_73\n          jump\t// in\n        tag_95:\n            /* \"#utility.yul\":1735:1798   */\n          swap3\n          pop\n            /* \"#utility.yul\":1691:1808   */\n          pop\n            /* \"#utility.yul\":1847:1849   */\n          0x20\n            /* \"#utility.yul\":1873:1926   */\n          tag_96\n            /* \"#utility.yul\":1918:1925   */\n          dup6\n            /* \"#utility.yul\":1909:1915   */\n          dup3\n            /* \"#utility.yul\":1898:1907   */\n          dup7\n            /* \"#utility.yul\":1894:1916   */\n          add\n            /* \"#utility.yul\":1873:1926   */\n          tag_77\n          jump\t// in\n        tag_96:\n            /* \"#utility.yul\":1863:1926   */\n          swap2\n          pop\n            /* \"#utility.yul\":1818:1936   */\n          pop\n            /* \"#utility.yul\":1619:1943   */\n          swap3\n          pop\n          swap3\n          swap1\n          pop\n          jump\t// out\n            /* \"#utility.yul\":1949:2058   */\n        tag_97:\n            /* \"#utility.yul\":2030:2051   */\n          tag_99\n            /* \"#utility.yul\":2045:2050   */\n          dup2\n            /* \"#utility.yul\":2030:2051   */\n          tag_100\n          jump\t// in\n        tag_99:\n            /* \"#utility.yul\":2025:2028   */\n          dup3\n            /* \"#utility.yul\":2018:2052   */\n          mstore\n            /* \"#utility.yul\":2008:2058   */\n          pop\n          pop\n          jump\t// out\n            /* \"#utility.yul\":2064:2428   */\n        tag_101:\n          0x00\n            /* \"#utility.yul\":2180:2219   */\n          tag_103\n            /* \"#utility.yul\":2213:2218   */\n          dup3\n            /* \"#utility.yul\":2180:2219   */\n          tag_104\n          jump\t// in\n        tag_103:\n            /* \"#utility.yul\":2235:2306   */\n          tag_105\n            /* \"#utility.yul\":2299:2305   */\n          dup2\n            /* \"#utility.yul\":2294:2297   */\n          dup6\n            /* \"#utility.yul\":2235:2306   */\n          tag_106\n          jump\t// in\n        tag_105:\n            /* \"#utility.yul\":2228:2306   */\n          swap4\n          pop\n            /* \"#utility.yul\":2315:2367   */\n          tag_107\n            /* \"#utility.yul\":2360:2366   */\n          dup2\n            /* \"#utility.yul\":2355:2358   */\n          dup6\n            /* \"#utility.yul\":2348:2352   */\n          0x20\n            /* \"#utility.yul\":2341:2346   */\n          dup7\n            /* \"#utility.yul\":2337:2353   */\n          add\n            /* \"#utility.yul\":2315:2367   */\n          tag_108\n          jump\t// in\n        tag_107:\n            /* \"#utility.yul\":2392:2421   */\n          tag_109\n            /* \"#utility.yul\":2414:2420   */\n          dup2\n            /* \"#utility.yul\":2392:2421   */\n          tag_110\n          jump\t// in\n        tag_109:\n            /* \"#utility.yul\":2387:2390   */\n          dup5\n            /* \"#utility.yul\":2383:2422   */\n          add\n            /* \"#utility.yul\":2376:2422   */\n          swap2\n          pop\n            /* \"#utility.yul\":2156:2428   */\n          pop\n          swap3\n          swap2\n          pop\n          pop\n          jump\t// out\n            /* \"#utility.yul\":2434:2552   */\n        tag_111:\n            /* \"#utility.yul\":2521:2545   */\n          tag_113\n            /* \"#utility.yul\":2539:2544   */\n          dup2\n            /* \"#utility.yul\":2521:2545   */\n          tag_114\n          jump\t// in\n        tag_113:\n            /* \"#utility.yul\":2516:2519   */\n          dup3\n            /* \"#utility.yul\":2509:2546   */\n          mstore\n            /* \"#utility.yul\":2499:2552   */\n          pop\n          pop\n          jump\t// out\n            /* \"#utility.yul\":2558:2670   */\n        tag_115:\n            /* \"#utility.yul\":2641:2663   */\n          tag_117\n            /* \"#utility.yul\":2657:2662   */\n          dup2\n            /* \"#utility.yul\":2641:2663   */\n          tag_118\n          jump\t// in\n        tag_117:\n            /* \"#utility.yul\":2636:2639   */\n          dup3\n            /* \"#utility.yul\":2629:2664   */\n          mstore\n            /* \"#utility.yul\":2619:2670   */\n          pop\n          pop\n          jump\t// out\n            /* \"#utility.yul\":2676:2886   */\n        tag_22:\n          0x00\n            /* \"#utility.yul\":2801:2803   */\n          0x20\n            /* \"#utility.yul\":2790:2799   */\n          dup3\n            /* \"#utility.yul\":2786:2804   */\n          add\n            /* \"#utility.yul\":2778:2804   */\n          swap1\n          pop\n            /* \"#utility.yul\":2814:2879   */\n          tag_120\n            /* \"#utility.yul\":2876:2877   */\n          0x00\n            /* \"#utility.yul\":2865:2874   */\n          dup4\n            /* \"#utility.yul\":2861:2878   */\n          add\n            /* \"#utility.yul\":2852:2858   */\n          dup5\n            /* \"#utility.yul\":2814:2879   */\n          tag_97\n          jump\t// in\n        tag_120:\n            /* \"#utility.yul\":2768:2886   */\n          swap3\n          swap2\n          pop\n          pop\n          jump\t// out\n            /* \"#utility.yul\":2892:3205   */\n        tag_16:\n          0x00\n            /* \"#utility.yul\":3043:3045   */\n          0x20\n            /* \"#utility.yul\":3032:3041   */\n          dup3\n            /* \"#utility.yul\":3028:3046   */\n          add\n            /* \"#utility.yul\":3020:3046   */\n          swap1\n          pop\n            /* \"#utility.yul\":3092:3101   */\n          dup2\n            /* \"#utility.yul\":3086:3090   */\n          dup2\n            /* \"#utility.yul\":3082:3102   */\n          sub\n            /* \"#utility.yul\":3078:3079   */\n          0x00\n            /* \"#utility.yul\":3067:3076   */\n          dup4\n            /* \"#utility.yul\":3063:3080   */\n          add\n            /* \"#utility.yul\":3056:3103   */\n          mstore\n            /* \"#utility.yul\":3120:3198   */\n          tag_122\n            /* \"#utility.yul\":3193:3197   */\n          dup2\n            /* \"#utility.yul\":3184:3190   */\n          dup5\n            /* \"#utility.yul\":3120:3198   */\n          tag_101\n          jump\t// in\n        tag_122:\n            /* \"#utility.yul\":3112:3198   */\n          swap1\n          pop\n            /* \"#utility.yul\":3010:3205   */\n          swap3\n          swap2\n          pop\n          pop\n          jump\t// out\n            /* \"#utility.yul\":3211:3433   */\n        tag_26:\n          0x00\n            /* \"#utility.yul\":3342:3344   */\n          0x20\n            /* \"#utility.yul\":3331:3340   */\n          dup3\n            /* \"#utility.yul\":3327:3345   */\n          add\n            /* \"#utility.yul\":3319:3345   */\n          swap1\n          pop\n            /* \"#utility.yul\":3355:3426   */\n          tag_124\n            /* \"#utility.yul\":3423:3424   */\n          0x00\n            /* \"#utility.yul\":3412:3421   */\n          dup4\n            /* \"#utility.yul\":3408:3425   */\n          add\n            /* \"#utility.yul\":3399:3405   */\n          dup5\n            /* \"#utility.yul\":3355:3426   */\n          tag_111\n          jump\t// in\n        tag_124:\n            /* \"#utility.yul\":3309:3433   */\n          swap3\n          swap2\n          pop\n          pop\n          jump\t// out\n            /* \"#utility.yul\":3439:3653   */\n        tag_35:\n          0x00\n            /* \"#utility.yul\":3566:3568   */\n          0x20\n            /* \"#utility.yul\":3555:3564   */\n          dup3\n            /* \"#utility.yul\":3551:3569   */\n          add\n            /* \"#utility.yul\":3543:3569   */\n          swap1\n          pop\n            /* \"#utility.yul\":3579:3646   */\n          tag_126\n            /* \"#utility.yul\":3643:3644   */\n          0x00\n            /* \"#utility.yul\":3632:3641   */\n          dup4\n            /* \"#utility.yul\":3628:3645   */\n          add\n            /* \"#utility.yul\":3619:3625   */\n          dup5\n            /* \"#utility.yul\":3579:3646   */\n          tag_115\n          jump\t// in\n        tag_126:\n            /* \"#utility.yul\":3533:3653   */\n          swap3\n          swap2\n          pop\n          pop\n          jump\t// out\n            /* \"#utility.yul\":3659:3758   */\n        tag_104:\n          0x00\n            /* \"#utility.yul\":3745:3750   */\n          dup2\n            /* \"#utility.yul\":3739:3751   */\n          mload\n            /* \"#utility.yul\":3729:3751   */\n          swap1\n          pop\n            /* \"#utility.yul\":3718:3758   */\n          swap2\n          swap1\n          pop\n          jump\t// out\n            /* \"#utility.yul\":3764:3933   */\n        tag_106:\n          0x00\n            /* \"#utility.yul\":3882:3888   */\n          dup3\n            /* \"#utility.yul\":3877:3880   */\n          dup3\n            /* \"#utility.yul\":3870:3889   */\n          mstore\n            /* \"#utility.yul\":3922:3926   */\n          0x20\n            /* \"#utility.yul\":3917:3920   */\n          dup3\n            /* \"#utility.yul\":3913:3927   */\n          add\n            /* \"#utility.yul\":3898:3927   */\n          swap1\n          pop\n            /* \"#utility.yul\":3860:3933   */\n          swap3\n          swap2\n          pop\n          pop\n          jump\t// out\n            /* \"#utility.yul\":3939:4244   */\n        tag_63:\n          0x00\n            /* \"#utility.yul\":3998:4018   */\n          tag_130\n            /* \"#utility.yul\":4016:4017   */\n          dup3\n            /* \"#utility.yul\":3998:4018   */\n          tag_114\n          jump\t// in\n        tag_130:\n            /* \"#utility.yul\":3993:4018   */\n          swap2\n          pop\n            /* \"#utility.yul\":4032:4052   */\n          tag_131\n            /* \"#utility.yul\":4050:4051   */\n          dup4\n            /* \"#utility.yul\":4032:4052   */\n          tag_114\n          jump\t// in\n        tag_131:\n            /* \"#utility.yul\":4027:4052   */\n          swap3\n          pop\n            /* \"#utility.yul\":4186:4187   */\n          dup3\n            /* \"#utility.yul\":4118:4184   */\n          0xffffffffffffffffffffffffffffffffffffffffffffffffffffffffffffffff\n            /* \"#utility.yul\":4114:4188   */\n          sub\n            /* \"#utility.yul\":4111:4112   */\n          dup3\n            /* \"#utility.yul\":4108:4189   */\n          gt\n            /* \"#utility.yul\":4105:4107   */\n          iszero\n          tag_132\n          jumpi\n            /* \"#utility.yul\":4192:4210   */\n          tag_133\n          tag_134\n          jump\t// in\n        tag_133:\n            /* \"#utility.yul\":4105:4107   */\n        tag_132:\n            /* \"#utility.yul\":4236:4237   */\n          dup3\n            /* \"#utility.yul\":4233:4234   */\n          dup3\n            /* \"#utility.yul\":4229:4238   */\n          add\n            /* \"#utility.yul\":4222:4238   */\n          swap1\n          pop\n            /* \"#utility.yul\":3983:4244   */\n          swap3\n          swap2\n          pop\n          pop\n          jump\t// out\n            /* \"#utility.yul\":4250:4441   */\n        tag_60:\n          0x00\n            /* \"#utility.yul\":4310:4330   */\n          tag_136\n            /* \"#utility.yul\":4328:4329   */\n          dup3\n            /* \"#utility.yul\":4310:4330   */\n          tag_114\n          jump\t// in\n        tag_136:\n            /* \"#utility.yul\":4305:4330   */\n          swap2\n          pop\n            /* \"#utility.yul\":4344:4364   */\n          tag_137\n            /* \"#utility.yul\":4362:4363   */\n          dup4\n            /* \"#utility.yul\":4344:4364   */\n          tag_114\n          jump\t// in\n        tag_137:\n            /* \"#utility.yul\":4339:4364   */\n          swap3\n          pop\n            /* \"#utility.yul\":4383:4384   */\n          dup3\n            /* \"#utility.yul\":4380:4381   */\n          dup3\n            /* \"#utility.yul\":4377:4385   */\n          lt\n            /* \"#utility.yul\":4374:4376   */\n          iszero\n          tag_138\n          jumpi\n            /* \"#utility.yul\":4388:4406   */\n          tag_139\n          tag_134\n          jump\t// in\n        tag_139:\n            /* \"#utility.yul\":4374:4376   */\n        tag_138:\n            /* \"#utility.yul\":4433:4434   */\n          dup3\n            /* \"#utility.yul\":4430:4431   */\n          dup3\n            /* \"#utility.yul\":4426:4435   */\n          sub\n            /* \"#utility.yul\":4418:4435   */\n          swap1\n          pop\n            /* \"#utility.yul\":4295:4441   */\n          swap3\n          swap2\n          pop\n          pop\n          jump\t// out\n            /* \"#utility.yul\":4447:4543   */\n        tag_140:\n          0x00\n            /* \"#utility.yul\":4513:4537   */\n          tag_142\n            /* \"#utility.yul\":4531:4536   */\n          dup3\n            /* \"#utility.yul\":4513:4537   */\n          tag_143\n          jump\t// in\n        tag_142:\n            /* \"#utility.yul\":4502:4537   */\n          swap1\n          pop\n            /* \"#utility.yul\":4492:4543   */\n          swap2\n          swap1\n          pop\n          jump\t// out\n            /* \"#utility.yul\":4549:4639   */\n        tag_100:\n          0x00\n            /* \"#utility.yul\":4626:4631   */\n          dup2\n            /* \"#utility.yul\":4619:4632   */\n          iszero\n            /* \"#utility.yul\":4612:4633   */\n          iszero\n            /* \"#utility.yul\":4601:4633   */\n          swap1\n          pop\n            /* \"#utility.yul\":4591:4639   */\n          swap2\n          swap1\n          pop\n          jump\t// out\n            /* \"#utility.yul\":4645:4771   */\n        tag_143:\n          0x00\n            /* \"#utility.yul\":4722:4764   */\n          0xffffffffffffffffffffffffffffffffffffffff\n            /* \"#utility.yul\":4715:4720   */\n          dup3\n            /* \"#utility.yul\":4711:4765   */\n          and\n            /* \"#utility.yul\":4700:4765   */\n          swap1\n          pop\n            /* \"#utility.yul\":4690:4771   */\n          swap2\n          swap1\n          pop\n          jump\t// out\n            /* \"#utility.yul\":4777:4854   */\n        tag_114:\n          0x00\n            /* \"#utility.yul\":4843:4848   */\n          dup2\n            /* \"#utility.yul\":4832:4848   */\n          swap1\n          pop\n            /* \"#utility.yul\":4822:4854   */\n          swap2\n          swap1\n          pop\n          jump\t// out\n            /* \"#utility.yul\":4860:4946   */\n        tag_118:\n          0x00\n            /* \"#utility.yul\":4935:4939   */\n          0xff\n            /* \"#utility.yul\":4928:4933   */\n          dup3\n            /* \"#utility.yul\":4924:4940   */\n          and\n            /* \"#utility.yul\":4913:4940   */\n          swap1\n          pop\n            /* \"#utility.yul\":4903:4946   */\n          swap2\n          swap1\n          pop\n          jump\t// out\n            /* \"#utility.yul\":4952:5259   */\n        tag_108:\n            /* \"#utility.yul\":5020:5021   */\n          0x00\n            /* \"#utility.yul\":5030:5143   */\n        tag_149:\n            /* \"#utility.yul\":5044:5050   */\n          dup4\n            /* \"#utility.yul\":5041:5042   */\n          dup2\n            /* \"#utility.yul\":5038:5051   */\n          lt\n            /* \"#utility.yul\":5030:5143   */\n          iszero\n          tag_151\n          jumpi\n            /* \"#utility.yul\":5129:5130   */\n          dup1\n            /* \"#utility.yul\":5124:5127   */\n          dup3\n            /* \"#utility.yul\":5120:5131   */\n          add\n            /* \"#utility.yul\":5114:5132   */\n          mload\n            /* \"#utility.yul\":5110:5111   */\n          dup2\n            /* \"#utility.yul\":5105:5108   */\n          dup5\n            /* \"#utility.yul\":5101:5112   */\n          add\n            /* \"#utility.yul\":5094:5133   */\n          mstore\n            /* \"#utility.yul\":5066:5068   */\n          0x20\n            /* \"#utility.yul\":5063:5064   */\n          dup2\n            /* \"#utility.yul\":5059:5069   */\n          add\n            /* \"#utility.yul\":5054:5069   */\n          swap1\n          pop\n            /* \"#utility.yul\":5030:5143   */\n          jump(tag_149)\n        tag_151:\n            /* \"#utility.yul\":5161:5167   */\n          dup4\n            /* \"#utility.yul\":5158:5159   */\n          dup2\n            /* \"#utility.yul\":5155:5168   */\n          gt\n            /* \"#utility.yul\":5152:5154   */\n          iszero\n          tag_152\n          jumpi\n            /* \"#utility.yul\":5241:5242   */\n          0x00\n            /* \"#utility.yul\":5232:5238   */\n          dup5\n            /* \"#utility.yul\":5227:5230   */\n          dup5\n            /* \"#utility.yul\":5223:5239   */\n          add\n            /* \"#utility.yul\":5216:5243   */\n          mstore\n            /* \"#utility.yul\":5152:5154   */\n        tag_152:\n            /* \"#utility.yul\":5001:5259   */\n          pop\n          pop\n          pop\n          pop\n          jump\t// out\n            /* \"#utility.yul\":5265:5445   */\n        tag_134:\n            /* \"#utility.yul\":5313:5390   */\n          0x4e487b7100000000000000000000000000000000000000000000000000000000\n            /* \"#utility.yul\":5310:5311   */\n          0x00\n            /* \"#utility.yul\":5303:5391   */\n          mstore\n            /* \"#utility.yul\":5410:5414   */\n          0x11\n            /* \"#utility.yul\":5407:5408   */\n          0x04\n            /* \"#utility.yul\":5400:5415   */\n          mstore\n            /* \"#utility.yul\":5434:5438   */\n          0x24\n            /* \"#utility.yul\":5431:5432   */\n          0x00\n            /* \"#utility.yul\":5424:5439   */\n          revert\n            /* \"#utility.yul\":5451:5553   */\n        tag_110:\n          0x00\n            /* \"#utility.yul\":5543:5545   */\n          0x1f\n            /* \"#utility.yul\":5539:5546   */\n          not\n            /* \"#utility.yul\":5534:5536   */\n          0x1f\n            /* \"#utility.yul\":5527:5532   */\n          dup4\n            /* \"#utility.yul\":5523:5537   */\n          add\n            /* \"#utility.yul\":5519:5547   */\n          and\n            /* \"#utility.yul\":5509:5547   */\n          swap1\n          pop\n            /* \"#utility.yul\":5499:5553   */\n          swap2\n          swap1\n          pop\n          jump\t// out\n            /* \"#utility.yul\":5559:5681   */\n        tag_76:\n            /* \"#utility.yul\":5632:5656   */\n          tag_156\n            /* \"#utility.yul\":5650:5655   */\n          dup2\n            /* \"#utility.yul\":5632:5656   */\n          tag_140\n          jump\t// in\n        tag_156:\n            /* \"#utility.yul\":5625:5630   */\n          dup2\n            /* \"#utility.yul\":5622:5657   */\n          eq\n            /* \"#utility.yul\":5612:5614   */\n          tag_157\n          jumpi\n            /* \"#utility.yul\":5671:5672   */\n          0x00\n            /* \"#utility.yul\":5668:5669   */\n          dup1\n            /* \"#utility.yul\":5661:5673   */\n          revert\n            /* \"#utility.yul\":5612:5614   */\n        tag_157:\n            /* \"#utility.yul\":5602:5681   */\n          pop\n          jump\t// out\n            /* \"#utility.yul\":5687:5809   */\n        tag_80:\n            /* \"#utility.yul\":5760:5784   */\n          tag_159\n            /* \"#utility.yul\":5778:5783   */\n          dup2\n            /* \"#utility.yul\":5760:5784   */\n          tag_114\n          jump\t// in\n        tag_159:\n            /* \"#utility.yul\":5753:5758   */\n          dup2\n            /* \"#utility.yul\":5750:5785   */\n          eq\n            /* \"#utility.yul\":5740:5742   */\n          tag_160\n          jumpi\n            /* \"#utility.yul\":5799:5800   */\n          0x00\n            /* \"#utility.yul\":5796:5797   */\n          dup1\n            /* \"#utility.yul\":5789:5801   */\n          revert\n            /* \"#utility.yul\":5740:5742   */\n        tag_160:\n            /* \"#utility.yul\":5730:5809   */\n          pop\n          jump\t// out\n\n        auxdata: 0xa2646970667358221220702c23c8a9c20948f3c6f110d1752689aab47237a8434eea874add603762760564736f6c63430008000033\n    }\n}\n",
				"bytecode": {
					"linkReferences": {},
					"object": "608060405234801561001057600080fd5b5060405161001d9061007e565b604051809103906000f080158015610039573d6000803e3d6000fd5b506000806101000a81548173ffffffffffffffffffffffffffffffffffffffff021916908373ffffffffffffffffffffffffffffffffffffffff16021790555061008b565b610db280610a2783390190565b61098d8061009a6000396000f3fe6080604052600436106100345760003560e01c8063a6f2ae3a14610039578063e4849b3214610043578063fc0c546a1461006c575b600080fd5b610041610097565b005b34801561004f57600080fd5b5061006a600480360381019061006591906105ad565b6102b9565b005b34801561007857600080fd5b50610081610521565b60405161008e91906107f6565b60405180910390f35b600034905060008060009054906101000a900473ffffffffffffffffffffffffffffffffffffffff1673ffffffffffffffffffffffffffffffffffffffff166370a08231306040518263ffffffff1660e01b81526004016100f89190610752565b60206040518083038186803b15801561011057600080fd5b505afa158015610124573d6000803e3d6000fd5b505050506040513d601f19601f8201168201806040525081019061014891906105d6565b90506000821161018d576040517f08c379a000000000000000000000000000000000000000000000000000000000815260040161018490610871565b60405180910390fd5b808211156101d0576040517f08c379a00000000000000000000000000000000000000000000000000000000081526004016101c790610851565b60405180910390fd5b60008054906101000a900473ffffffffffffffffffffffffffffffffffffffff1673ffffffffffffffffffffffffffffffffffffffff1663a9059cbb33846040518363ffffffff1660e01b815260040161022b9291906107cd565b602060405180830381600087803b15801561024557600080fd5b505af1158015610259573d6000803e3d6000fd5b505050506040513d601f19601f8201168201806040525081019061027d9190610584565b507f4e08ba899977cf7d4c2964bce71c6b9a7ef76ee5166a4c1249a1e08016e33ef1826040516102ad9190610891565b60405180910390a15050565b600081116102fc576040517f08c379a00000000000000000000000000000000000000000000000000000000081526004016102f390610811565b60405180910390fd5b60008060009054906101000a900473ffffffffffffffffffffffffffffffffffffffff1673ffffffffffffffffffffffffffffffffffffffff1663dd62ed3e33306040518363ffffffff1660e01b815260040161035a92919061076d565b60206040518083038186803b15801561037257600080fd5b505afa158015610386573d6000803e3d6000fd5b505050506040513d601f19601f820116820180604052508101906103aa91906105d6565b9050818110156103ef576040517f08c379a00000000000000000000000000000000000000000000000000000000081526004016103e690610831565b60405180910390fd5b60008054906101000a900473ffffffffffffffffffffffffffffffffffffffff1673ffffffffffffffffffffffffffffffffffffffff166323b872dd3330856040518463ffffffff1660e01b815260040161044c93929190610796565b602060405180830381600087803b15801561046657600080fd5b505af115801561047a573d6000803e3d6000fd5b505050506040513d601f19601f8201168201806040525081019061049e9190610584565b503373ffffffffffffffffffffffffffffffffffffffff166108fc839081150290604051600060405180830381858888f193505050501580156104e5573d6000803e3d6000fd5b507f92f64ca637d023f354075a4be751b169c1a8a9ccb6d33cdd0cb3520543995727826040516105159190610891565b60405180910390a15050565b60008054906101000a900473ffffffffffffffffffffffffffffffffffffffff1681565b60008151905061055481610929565b92915050565b60008135905061056981610940565b92915050565b60008151905061057e81610940565b92915050565b60006020828403121561059657600080fd5b60006105a484828501610545565b91505092915050565b6000602082840312156105bf57600080fd5b60006105cd8482850161055a565b91505092915050565b6000602082840312156105e857600080fd5b60006105f68482850161056f565b91505092915050565b610608816108bd565b82525050565b61061781610905565b82525050565b600061062a6025836108ac565b91507f596f75206e65656420746f2073656c6c206174206c6561737420736f6d65207460008301527f6f6b656e730000000000000000000000000000000000000000000000000000006020830152604082019050919050565b60006106906019836108ac565b91507f436865636b2074686520746f6b656e20616c6c6f77616e6365000000000000006000830152602082019050919050565b60006106d06020836108ac565b91507f4e6f7420656e6f75676820746f6b656e7320696e2074686520726573657276656000830152602082019050919050565b6000610710601b836108ac565b91507f596f75206e65656420746f2073656e6420736f6d6520657468657200000000006000830152602082019050919050565b61074c816108fb565b82525050565b600060208201905061076760008301846105ff565b92915050565b600060408201905061078260008301856105ff565b61078f60208301846105ff565b9392505050565b60006060820190506107ab60008301866105ff565b6107b860208301856105ff565b6107c56040830184610743565b949350505050565b60006040820190506107e260008301856105ff565b6107ef6020830184610743565b9392505050565b600060208201905061080b600083018461060e565b92915050565b6000602082019050818103600083015261082a8161061d565b9050919050565b6000602082019050818103600083015261084a81610683565b9050919050565b6000602082019050818103600083015261086a816106c3565b9050919050565b6000602082019050818103600083015261088a81610703565b9050919050565b60006020820190506108a66000830184610743565b92915050565b600082825260208201905092915050565b60006108c8826108db565b9050919050565b60008115159050919050565b600073ffffffffffffffffffffffffffffffffffffffff82169050919050565b6000819050919050565b600061091082610917565b9050919050565b6000610922826108db565b9050919050565b610932816108cf565b811461093d57600080fd5b50565b610949816108fb565b811461095457600080fd5b5056fea26469706673582212204175cd9508c8ad3600d2f18695329abce6de147fd4774e87c249f68723329b3164736f6c634300080000336080604052678ac7230489e8000060025534801561001c57600080fd5b506002546000803373ffffffffffffffffffffffffffffffffffffffff1673ffffffffffffffffffffffffffffffffffffffff16815260200190815260200160002081905550610d41806100716000396000f3fe608060405234801561001057600080fd5b50600436106100935760003560e01c8063313ce56711610066578063313ce5671461013457806370a082311461015257806395d89b4114610182578063a9059cbb146101a0578063dd62ed3e146101d057610093565b806306fdde0314610098578063095ea7b3146100b657806318160ddd146100e657806323b872dd14610104575b600080fd5b6100a0610200565b6040516100ad9190610b17565b60405180910390f35b6100d060048036038101906100cb9190610a5a565b610239565b6040516100dd9190610afc565b60405180910390f35b6100ee61032b565b6040516100fb9190610b39565b60405180910390f35b61011e60048036038101906101199190610a0b565b610335565b60405161012b9190610afc565b60405180910390f35b61013c61069b565b6040516101499190610b54565b60405180910390f35b61016c600480360381019061016791906109a6565b6106a0565b6040516101799190610b39565b60405180910390f35b61018a6106e8565b6040516101979190610b17565b60405180910390f35b6101ba60048036038101906101b59190610a5a565b610721565b6040516101c79190610afc565b60405180910390f35b6101ea60048036038101906101e591906109cf565b6108f5565b6040516101f79190610b39565b60405180910390f35b6040518060400160405280600a81526020017f455243323042617369630000000000000000000000000000000000000000000081525081565b600081600160003373ffffffffffffffffffffffffffffffffffffffff1673ffffffffffffffffffffffffffffffffffffffff16815260200190815260200160002060008573ffffffffffffffffffffffffffffffffffffffff1673ffffffffffffffffffffffffffffffffffffffff168152602001908152602001600020819055508273ffffffffffffffffffffffffffffffffffffffff163373ffffffffffffffffffffffffffffffffffffffff167f8c5be1e5ebec7d5bd14f71427d1e84f3dd0314c0f7b2291e5b200ac8c7c3b925846040516103199190610b39565b60405180910390a36001905092915050565b6000600254905090565b60008060008573ffffffffffffffffffffffffffffffffffffffff1673ffffffffffffffffffffffffffffffffffffffff1681526020019081526020016000205482111561038257600080fd5b600160008573ffffffffffffffffffffffffffffffffffffffff1673ffffffffffffffffffffffffffffffffffffffff16815260200190815260200160002060003373ffffffffffffffffffffffffffffffffffffffff1673ffffffffffffffffffffffffffffffffffffffff1681526020019081526020016000205482111561040b57600080fd5b816000808673ffffffffffffffffffffffffffffffffffffffff1673ffffffffffffffffffffffffffffffffffffffff168152602001908152602001600020546104559190610be1565b6000808673ffffffffffffffffffffffffffffffffffffffff1673ffffffffffffffffffffffffffffffffffffffff1681526020019081526020016000208190555081600160008673ffffffffffffffffffffffffffffffffffffffff1673ffffffffffffffffffffffffffffffffffffffff16815260200190815260200160002060003373ffffffffffffffffffffffffffffffffffffffff1673ffffffffffffffffffffffffffffffffffffffff1681526020019081526020016000205461051f9190610be1565b600160008673ffffffffffffffffffffffffffffffffffffffff1673ffffffffffffffffffffffffffffffffffffffff16815260200190815260200160002060003373ffffffffffffffffffffffffffffffffffffffff1673ffffffffffffffffffffffffffffffffffffffff16815260200190815260200160002081905550816000808573ffffffffffffffffffffffffffffffffffffffff1673ffffffffffffffffffffffffffffffffffffffff168152602001908152602001600020546105e99190610b8b565b6000808573ffffffffffffffffffffffffffffffffffffffff1673ffffffffffffffffffffffffffffffffffffffff168152602001908152602001600020819055508273ffffffffffffffffffffffffffffffffffffffff168473ffffffffffffffffffffffffffffffffffffffff167fddf252ad1be2c89b69c2b068fc378daa952ba7f163c4a11628f55a4df523b3ef846040516106889190610b39565b60405180910390a3600190509392505050565b601281565b60008060008373ffffffffffffffffffffffffffffffffffffffff1673ffffffffffffffffffffffffffffffffffffffff168152602001908152602001600020549050919050565b6040518060400160405280600381526020017f455243000000000000000000000000000000000000000000000000000000000081525081565b60008060003373ffffffffffffffffffffffffffffffffffffffff1673ffffffffffffffffffffffffffffffffffffffff1681526020019081526020016000205482111561076e57600080fd5b816000803373ffffffffffffffffffffffffffffffffffffffff1673ffffffffffffffffffffffffffffffffffffffff168152602001908152602001600020546107b89190610be1565b6000803373ffffffffffffffffffffffffffffffffffffffff1673ffffffffffffffffffffffffffffffffffffffff16815260200190815260200160002081905550816000808573ffffffffffffffffffffffffffffffffffffffff1673ffffffffffffffffffffffffffffffffffffffff168152602001908152602001600020546108449190610b8b565b6000808573ffffffffffffffffffffffffffffffffffffffff1673ffffffffffffffffffffffffffffffffffffffff168152602001908152602001600020819055508273ffffffffffffffffffffffffffffffffffffffff163373ffffffffffffffffffffffffffffffffffffffff167fddf252ad1be2c89b69c2b068fc378daa952ba7f163c4a11628f55a4df523b3ef846040516108e39190610b39565b60405180910390a36001905092915050565b6000600160008473ffffffffffffffffffffffffffffffffffffffff1673ffffffffffffffffffffffffffffffffffffffff16815260200190815260200160002060008373ffffffffffffffffffffffffffffffffffffffff1673ffffffffffffffffffffffffffffffffffffffff16815260200190815260200160002054905092915050565b60008135905061098b81610cdd565b92915050565b6000813590506109a081610cf4565b92915050565b6000602082840312156109b857600080fd5b60006109c68482850161097c565b91505092915050565b600080604083850312156109e257600080fd5b60006109f08582860161097c565b9250506020610a018582860161097c565b9150509250929050565b600080600060608486031215610a2057600080fd5b6000610a2e8682870161097c565b9350506020610a3f8682870161097c565b9250506040610a5086828701610991565b9150509250925092565b60008060408385031215610a6d57600080fd5b6000610a7b8582860161097c565b9250506020610a8c85828601610991565b9150509250929050565b610a9f81610c27565b82525050565b6000610ab082610b6f565b610aba8185610b7a565b9350610aca818560208601610c6a565b610ad381610ccc565b840191505092915050565b610ae781610c53565b82525050565b610af681610c5d565b82525050565b6000602082019050610b116000830184610a96565b92915050565b60006020820190508181036000830152610b318184610aa5565b905092915050565b6000602082019050610b4e6000830184610ade565b92915050565b6000602082019050610b696000830184610aed565b92915050565b600081519050919050565b600082825260208201905092915050565b6000610b9682610c53565b9150610ba183610c53565b9250827fffffffffffffffffffffffffffffffffffffffffffffffffffffffffffffffff03821115610bd657610bd5610c9d565b5b828201905092915050565b6000610bec82610c53565b9150610bf783610c53565b925082821015610c0a57610c09610c9d565b5b828203905092915050565b6000610c2082610c33565b9050919050565b60008115159050919050565b600073ffffffffffffffffffffffffffffffffffffffff82169050919050565b6000819050919050565b600060ff82169050919050565b60005b83811015610c88578082015181840152602081019050610c6d565b83811115610c97576000848401525b50505050565b7f4e487b7100000000000000000000000000000000000000000000000000000000600052601160045260246000fd5b6000601f19601f8301169050919050565b610ce681610c15565b8114610cf157600080fd5b50565b610cfd81610c53565b8114610d0857600080fd5b5056fea2646970667358221220702c23c8a9c20948f3c6f110d1752689aab47237a8434eea874add603762760564736f6c63430008000033",
					"opcodes": "PUSH1 0x80 PUSH1 0x40 MSTORE CALLVALUE DUP1 ISZERO PUSH2 0x10 JUMPI PUSH1 0x0 DUP1 REVERT JUMPDEST POP PUSH1 0x40 MLOAD PUSH2 0x1D SWAP1 PUSH2 0x7E JUMP JUMPDEST PUSH1 0x40 MLOAD DUP1 SWAP2 SUB SWAP1 PUSH1 0x0 CREATE DUP1 ISZERO DUP1 ISZERO PUSH2 0x39 JUMPI RETURNDATASIZE PUSH1 0x0 DUP1 RETURNDATACOPY RETURNDATASIZE PUSH1 0x0 REVERT JUMPDEST POP PUSH1 0x0 DUP1 PUSH2 0x100 EXP DUP2 SLOAD DUP2 PUSH20 0xFFFFFFFFFFFFFFFFFFFFFFFFFFFFFFFFFFFFFFFF MUL NOT AND SWAP1 DUP4 PUSH20 0xFFFFFFFFFFFFFFFFFFFFFFFFFFFFFFFFFFFFFFFF AND MUL OR SWAP1 SSTORE POP PUSH2 0x8B JUMP JUMPDEST PUSH2 0xDB2 DUP1 PUSH2 0xA27 DUP4 CODECOPY ADD SWAP1 JUMP JUMPDEST PUSH2 0x98D DUP1 PUSH2 0x9A PUSH1 0x0 CODECOPY PUSH1 0x0 RETURN INVALID PUSH1 0x80 PUSH1 0x40 MSTORE PUSH1 0x4 CALLDATASIZE LT PUSH2 0x34 JUMPI PUSH1 0x0 CALLDATALOAD PUSH1 0xE0 SHR DUP1 PUSH4 0xA6F2AE3A EQ PUSH2 0x39 JUMPI DUP1 PUSH4 0xE4849B32 EQ PUSH2 0x43 JUMPI DUP1 PUSH4 0xFC0C546A EQ PUSH2 0x6C JUMPI JUMPDEST PUSH1 0x0 DUP1 REVERT JUMPDEST PUSH2 0x41 PUSH2 0x97 JUMP JUMPDEST STOP JUMPDEST CALLVALUE DUP1 ISZERO PUSH2 0x4F JUMPI PUSH1 0x0 DUP1 REVERT JUMPDEST POP PUSH2 0x6A PUSH1 0x4 DUP1 CALLDATASIZE SUB DUP2 ADD SWAP1 PUSH2 0x65 SWAP2 SWAP1 PUSH2 0x5AD JUMP JUMPDEST PUSH2 0x2B9 JUMP JUMPDEST STOP JUMPDEST CALLVALUE DUP1 ISZERO PUSH2 0x78 JUMPI PUSH1 0x0 DUP1 REVERT JUMPDEST POP PUSH2 0x81 PUSH2 0x521 JUMP JUMPDEST PUSH1 0x40 MLOAD PUSH2 0x8E SWAP2 SWAP1 PUSH2 0x7F6 JUMP JUMPDEST PUSH1 0x40 MLOAD DUP1 SWAP2 SUB SWAP1 RETURN JUMPDEST PUSH1 0x0 CALLVALUE SWAP1 POP PUSH1 0x0 DUP1 PUSH1 0x0 SWAP1 SLOAD SWAP1 PUSH2 0x100 EXP SWAP1 DIV PUSH20 0xFFFFFFFFFFFFFFFFFFFFFFFFFFFFFFFFFFFFFFFF AND PUSH20 0xFFFFFFFFFFFFFFFFFFFFFFFFFFFFFFFFFFFFFFFF AND PUSH4 0x70A08231 ADDRESS PUSH1 0x40 MLOAD DUP3 PUSH4 0xFFFFFFFF AND PUSH1 0xE0 SHL DUP2 MSTORE PUSH1 0x4 ADD PUSH2 0xF8 SWAP2 SWAP1 PUSH2 0x752 JUMP JUMPDEST PUSH1 0x20 PUSH1 0x40 MLOAD DUP1 DUP4 SUB DUP2 DUP7 DUP1 EXTCODESIZE ISZERO DUP1 ISZERO PUSH2 0x110 JUMPI PUSH1 0x0 DUP1 REVERT JUMPDEST POP GAS STATICCALL ISZERO DUP1 ISZERO PUSH2 0x124 JUMPI RETURNDATASIZE PUSH1 0x0 DUP1 RETURNDATACOPY RETURNDATASIZE PUSH1 0x0 REVERT JUMPDEST POP POP POP POP PUSH1 0x40 MLOAD RETURNDATASIZE PUSH1 0x1F NOT PUSH1 0x1F DUP3 ADD AND DUP3 ADD DUP1 PUSH1 0x40 MSTORE POP DUP2 ADD SWAP1 PUSH2 0x148 SWAP2 SWAP1 PUSH2 0x5D6 JUMP JUMPDEST SWAP1 POP PUSH1 0x0 DUP3 GT PUSH2 0x18D JUMPI PUSH1 0x40 MLOAD PUSH32 0x8C379A000000000000000000000000000000000000000000000000000000000 DUP2 MSTORE PUSH1 0x4 ADD PUSH2 0x184 SWAP1 PUSH2 0x871 JUMP JUMPDEST PUSH1 0x40 MLOAD DUP1 SWAP2 SUB SWAP1 REVERT JUMPDEST DUP1 DUP3 GT ISZERO PUSH2 0x1D0 JUMPI PUSH1 0x40 MLOAD PUSH32 0x8C379A000000000000000000000000000000000000000000000000000000000 DUP2 MSTORE PUSH1 0x4 ADD PUSH2 0x1C7 SWAP1 PUSH2 0x851 JUMP JUMPDEST PUSH1 0x40 MLOAD DUP1 SWAP2 SUB SWAP1 REVERT JUMPDEST PUSH1 0x0 DUP1 SLOAD SWAP1 PUSH2 0x100 EXP SWAP1 DIV PUSH20 0xFFFFFFFFFFFFFFFFFFFFFFFFFFFFFFFFFFFFFFFF AND PUSH20 0xFFFFFFFFFFFFFFFFFFFFFFFFFFFFFFFFFFFFFFFF AND PUSH4 0xA9059CBB CALLER DUP5 PUSH1 0x40 MLOAD DUP4 PUSH4 0xFFFFFFFF AND PUSH1 0xE0 SHL DUP2 MSTORE PUSH1 0x4 ADD PUSH2 0x22B SWAP3 SWAP2 SWAP1 PUSH2 0x7CD JUMP JUMPDEST PUSH1 0x20 PUSH1 0x40 MLOAD DUP1 DUP4 SUB DUP2 PUSH1 0x0 DUP8 DUP1 EXTCODESIZE ISZERO DUP1 ISZERO PUSH2 0x245 JUMPI PUSH1 0x0 DUP1 REVERT JUMPDEST POP GAS CALL ISZERO DUP1 ISZERO PUSH2 0x259 JUMPI RETURNDATASIZE PUSH1 0x0 DUP1 RETURNDATACOPY RETURNDATASIZE PUSH1 0x0 REVERT JUMPDEST POP POP POP POP PUSH1 0x40 MLOAD RETURNDATASIZE PUSH1 0x1F NOT PUSH1 0x1F DUP3 ADD AND DUP3 ADD DUP1 PUSH1 0x40 MSTORE POP DUP2 ADD SWAP1 PUSH2 0x27D SWAP2 SWAP1 PUSH2 0x584 JUMP JUMPDEST POP PUSH32 0x4E08BA899977CF7D4C2964BCE71C6B9A7EF76EE5166A4C1249A1E08016E33EF1 DUP3 PUSH1 0x40 MLOAD PUSH2 0x2AD SWAP2 SWAP1 PUSH2 0x891 JUMP JUMPDEST PUSH1 0x40 MLOAD DUP1 SWAP2 SUB SWAP1 LOG1 POP POP JUMP JUMPDEST PUSH1 0x0 DUP2 GT PUSH2 0x2FC JUMPI PUSH1 0x40 MLOAD PUSH32 0x8C379A000000000000000000000000000000000000000000000000000000000 DUP2 MSTORE PUSH1 0x4 ADD PUSH2 0x2F3 SWAP1 PUSH2 0x811 JUMP JUMPDEST PUSH1 0x40 MLOAD DUP1 SWAP2 SUB SWAP1 REVERT JUMPDEST PUSH1 0x0 DUP1 PUSH1 0x0 SWAP1 SLOAD SWAP1 PUSH2 0x100 EXP SWAP1 DIV PUSH20 0xFFFFFFFFFFFFFFFFFFFFFFFFFFFFFFFFFFFFFFFF AND PUSH20 0xFFFFFFFFFFFFFFFFFFFFFFFFFFFFFFFFFFFFFFFF AND PUSH4 0xDD62ED3E CALLER ADDRESS PUSH1 0x40 MLOAD DUP4 PUSH4 0xFFFFFFFF AND PUSH1 0xE0 SHL DUP2 MSTORE PUSH1 0x4 ADD PUSH2 0x35A SWAP3 SWAP2 SWAP1 PUSH2 0x76D JUMP JUMPDEST PUSH1 0x20 PUSH1 0x40 MLOAD DUP1 DUP4 SUB DUP2 DUP7 DUP1 EXTCODESIZE ISZERO DUP1 ISZERO PUSH2 0x372 JUMPI PUSH1 0x0 DUP1 REVERT JUMPDEST POP GAS STATICCALL ISZERO DUP1 ISZERO PUSH2 0x386 JUMPI RETURNDATASIZE PUSH1 0x0 DUP1 RETURNDATACOPY RETURNDATASIZE PUSH1 0x0 REVERT JUMPDEST POP POP POP POP PUSH1 0x40 MLOAD RETURNDATASIZE PUSH1 0x1F NOT PUSH1 0x1F DUP3 ADD AND DUP3 ADD DUP1 PUSH1 0x40 MSTORE POP DUP2 ADD SWAP1 PUSH2 0x3AA SWAP2 SWAP1 PUSH2 0x5D6 JUMP JUMPDEST SWAP1 POP DUP2 DUP2 LT ISZERO PUSH2 0x3EF JUMPI PUSH1 0x40 MLOAD PUSH32 0x8C379A000000000000000000000000000000000000000000000000000000000 DUP2 MSTORE PUSH1 0x4 ADD PUSH2 0x3E6 SWAP1 PUSH2 0x831 JUMP JUMPDEST PUSH1 0x40 MLOAD DUP1 SWAP2 SUB SWAP1 REVERT JUMPDEST PUSH1 0x0 DUP1 SLOAD SWAP1 PUSH2 0x100 EXP SWAP1 DIV PUSH20 0xFFFFFFFFFFFFFFFFFFFFFFFFFFFFFFFFFFFFFFFF AND PUSH20 0xFFFFFFFFFFFFFFFFFFFFFFFFFFFFFFFFFFFFFFFF AND PUSH4 0x23B872DD CALLER ADDRESS DUP6 PUSH1 0x40 MLOAD DUP5 PUSH4 0xFFFFFFFF AND PUSH1 0xE0 SHL DUP2 MSTORE PUSH1 0x4 ADD PUSH2 0x44C SWAP4 SWAP3 SWAP2 SWAP1 PUSH2 0x796 JUMP JUMPDEST PUSH1 0x20 PUSH1 0x40 MLOAD DUP1 DUP4 SUB DUP2 PUSH1 0x0 DUP8 DUP1 EXTCODESIZE ISZERO DUP1 ISZERO PUSH2 0x466 JUMPI PUSH1 0x0 DUP1 REVERT JUMPDEST POP GAS CALL ISZERO DUP1 ISZERO PUSH2 0x47A JUMPI RETURNDATASIZE PUSH1 0x0 DUP1 RETURNDATACOPY RETURNDATASIZE PUSH1 0x0 REVERT JUMPDEST POP POP POP POP PUSH1 0x40 MLOAD RETURNDATASIZE PUSH1 0x1F NOT PUSH1 0x1F DUP3 ADD AND DUP3 ADD DUP1 PUSH1 0x40 MSTORE POP DUP2 ADD SWAP1 PUSH2 0x49E SWAP2 SWAP1 PUSH2 0x584 JUMP JUMPDEST POP CALLER PUSH20 0xFFFFFFFFFFFFFFFFFFFFFFFFFFFFFFFFFFFFFFFF AND PUSH2 0x8FC DUP4 SWAP1 DUP2 ISZERO MUL SWAP1 PUSH1 0x40 MLOAD PUSH1 0x0 PUSH1 0x40 MLOAD DUP1 DUP4 SUB DUP2 DUP6 DUP9 DUP9 CALL SWAP4 POP POP POP POP ISZERO DUP1 ISZERO PUSH2 0x4E5 JUMPI RETURNDATASIZE PUSH1 0x0 DUP1 RETURNDATACOPY RETURNDATASIZE PUSH1 0x0 REVERT JUMPDEST POP PUSH32 0x92F64CA637D023F354075A4BE751B169C1A8A9CCB6D33CDD0CB3520543995727 DUP3 PUSH1 0x40 MLOAD PUSH2 0x515 SWAP2 SWAP1 PUSH2 0x891 JUMP JUMPDEST PUSH1 0x40 MLOAD DUP1 SWAP2 SUB SWAP1 LOG1 POP POP JUMP JUMPDEST PUSH1 0x0 DUP1 SLOAD SWAP1 PUSH2 0x100 EXP SWAP1 DIV PUSH20 0xFFFFFFFFFFFFFFFFFFFFFFFFFFFFFFFFFFFFFFFF AND DUP2 JUMP JUMPDEST PUSH1 0x0 DUP2 MLOAD SWAP1 POP PUSH2 0x554 DUP2 PUSH2 0x929 JUMP JUMPDEST SWAP3 SWAP2 POP POP JUMP JUMPDEST PUSH1 0x0 DUP2 CALLDATALOAD SWAP1 POP PUSH2 0x569 DUP2 PUSH2 0x940 JUMP JUMPDEST SWAP3 SWAP2 POP POP JUMP JUMPDEST PUSH1 0x0 DUP2 MLOAD SWAP1 POP PUSH2 0x57E DUP2 PUSH2 0x940 JUMP JUMPDEST SWAP3 SWAP2 POP POP JUMP JUMPDEST PUSH1 0x0 PUSH1 0x20 DUP3 DUP5 SUB SLT ISZERO PUSH2 0x596 JUMPI PUSH1 0x0 DUP1 REVERT JUMPDEST PUSH1 0x0 PUSH2 0x5A4 DUP5 DUP3 DUP6 ADD PUSH2 0x545 JUMP JUMPDEST SWAP2 POP POP SWAP3 SWAP2 POP POP JUMP JUMPDEST PUSH1 0x0 PUSH1 0x20 DUP3 DUP5 SUB SLT ISZERO PUSH2 0x5BF JUMPI PUSH1 0x0 DUP1 REVERT JUMPDEST PUSH1 0x0 PUSH2 0x5CD DUP5 DUP3 DUP6 ADD PUSH2 0x55A JUMP JUMPDEST SWAP2 POP POP SWAP3 SWAP2 POP POP JUMP JUMPDEST PUSH1 0x0 PUSH1 0x20 DUP3 DUP5 SUB SLT ISZERO PUSH2 0x5E8 JUMPI PUSH1 0x0 DUP1 REVERT JUMPDEST PUSH1 0x0 PUSH2 0x5F6 DUP5 DUP3 DUP6 ADD PUSH2 0x56F JUMP JUMPDEST SWAP2 POP POP SWAP3 SWAP2 POP POP JUMP JUMPDEST PUSH2 0x608 DUP2 PUSH2 0x8BD JUMP JUMPDEST DUP3 MSTORE POP POP JUMP JUMPDEST PUSH2 0x617 DUP2 PUSH2 0x905 JUMP JUMPDEST DUP3 MSTORE POP POP JUMP JUMPDEST PUSH1 0x0 PUSH2 0x62A PUSH1 0x25 DUP4 PUSH2 0x8AC JUMP JUMPDEST SWAP2 POP PUSH32 0x596F75206E65656420746F2073656C6C206174206C6561737420736F6D652074 PUSH1 0x0 DUP4 ADD MSTORE PUSH32 0x6F6B656E73000000000000000000000000000000000000000000000000000000 PUSH1 0x20 DUP4 ADD MSTORE PUSH1 0x40 DUP3 ADD SWAP1 POP SWAP2 SWAP1 POP JUMP JUMPDEST PUSH1 0x0 PUSH2 0x690 PUSH1 0x19 DUP4 PUSH2 0x8AC JUMP JUMPDEST SWAP2 POP PUSH32 0x436865636B2074686520746F6B656E20616C6C6F77616E636500000000000000 PUSH1 0x0 DUP4 ADD MSTORE PUSH1 0x20 DUP3 ADD SWAP1 POP SWAP2 SWAP1 POP JUMP JUMPDEST PUSH1 0x0 PUSH2 0x6D0 PUSH1 0x20 DUP4 PUSH2 0x8AC JUMP JUMPDEST SWAP2 POP PUSH32 0x4E6F7420656E6F75676820746F6B656E7320696E207468652072657365727665 PUSH1 0x0 DUP4 ADD MSTORE PUSH1 0x20 DUP3 ADD SWAP1 POP SWAP2 SWAP1 POP JUMP JUMPDEST PUSH1 0x0 PUSH2 0x710 PUSH1 0x1B DUP4 PUSH2 0x8AC JUMP JUMPDEST SWAP2 POP PUSH32 0x596F75206E65656420746F2073656E6420736F6D652065746865720000000000 PUSH1 0x0 DUP4 ADD MSTORE PUSH1 0x20 DUP3 ADD SWAP1 POP SWAP2 SWAP1 POP JUMP JUMPDEST PUSH2 0x74C DUP2 PUSH2 0x8FB JUMP JUMPDEST DUP3 MSTORE POP POP JUMP JUMPDEST PUSH1 0x0 PUSH1 0x20 DUP3 ADD SWAP1 POP PUSH2 0x767 PUSH1 0x0 DUP4 ADD DUP5 PUSH2 0x5FF JUMP JUMPDEST SWAP3 SWAP2 POP POP JUMP JUMPDEST PUSH1 0x0 PUSH1 0x40 DUP3 ADD SWAP1 POP PUSH2 0x782 PUSH1 0x0 DUP4 ADD DUP6 PUSH2 0x5FF JUMP JUMPDEST PUSH2 0x78F PUSH1 0x20 DUP4 ADD DUP5 PUSH2 0x5FF JUMP JUMPDEST SWAP4 SWAP3 POP POP POP JUMP JUMPDEST PUSH1 0x0 PUSH1 0x60 DUP3 ADD SWAP1 POP PUSH2 0x7AB PUSH1 0x0 DUP4 ADD DUP7 PUSH2 0x5FF JUMP JUMPDEST PUSH2 0x7B8 PUSH1 0x20 DUP4 ADD DUP6 PUSH2 0x5FF JUMP JUMPDEST PUSH2 0x7C5 PUSH1 0x40 DUP4 ADD DUP5 PUSH2 0x743 JUMP JUMPDEST SWAP5 SWAP4 POP POP POP POP JUMP JUMPDEST PUSH1 0x0 PUSH1 0x40 DUP3 ADD SWAP1 POP PUSH2 0x7E2 PUSH1 0x0 DUP4 ADD DUP6 PUSH2 0x5FF JUMP JUMPDEST PUSH2 0x7EF PUSH1 0x20 DUP4 ADD DUP5 PUSH2 0x743 JUMP JUMPDEST SWAP4 SWAP3 POP POP POP JUMP JUMPDEST PUSH1 0x0 PUSH1 0x20 DUP3 ADD SWAP1 POP PUSH2 0x80B PUSH1 0x0 DUP4 ADD DUP5 PUSH2 0x60E JUMP JUMPDEST SWAP3 SWAP2 POP POP JUMP JUMPDEST PUSH1 0x0 PUSH1 0x20 DUP3 ADD SWAP1 POP DUP2 DUP2 SUB PUSH1 0x0 DUP4 ADD MSTORE PUSH2 0x82A DUP2 PUSH2 0x61D JUMP JUMPDEST SWAP1 POP SWAP2 SWAP1 POP JUMP JUMPDEST PUSH1 0x0 PUSH1 0x20 DUP3 ADD SWAP1 POP DUP2 DUP2 SUB PUSH1 0x0 DUP4 ADD MSTORE PUSH2 0x84A DUP2 PUSH2 0x683 JUMP JUMPDEST SWAP1 POP SWAP2 SWAP1 POP JUMP JUMPDEST PUSH1 0x0 PUSH1 0x20 DUP3 ADD SWAP1 POP DUP2 DUP2 SUB PUSH1 0x0 DUP4 ADD MSTORE PUSH2 0x86A DUP2 PUSH2 0x6C3 JUMP JUMPDEST SWAP1 POP SWAP2 SWAP1 POP JUMP JUMPDEST PUSH1 0x0 PUSH1 0x20 DUP3 ADD SWAP1 POP DUP2 DUP2 SUB PUSH1 0x0 DUP4 ADD MSTORE PUSH2 0x88A DUP2 PUSH2 0x703 JUMP JUMPDEST SWAP1 POP SWAP2 SWAP1 POP JUMP JUMPDEST PUSH1 0x0 PUSH1 0x20 DUP3 ADD SWAP1 POP PUSH2 0x8A6 PUSH1 0x0 DUP4 ADD DUP5 PUSH2 0x743 JUMP JUMPDEST SWAP3 SWAP2 POP POP JUMP JUMPDEST PUSH1 0x0 DUP3 DUP3 MSTORE PUSH1 0x20 DUP3 ADD SWAP1 POP SWAP3 SWAP2 POP POP JUMP JUMPDEST PUSH1 0x0 PUSH2 0x8C8 DUP3 PUSH2 0x8DB JUMP JUMPDEST SWAP1 POP SWAP2 SWAP1 POP JUMP JUMPDEST PUSH1 0x0 DUP2 ISZERO ISZERO SWAP1 POP SWAP2 SWAP1 POP JUMP JUMPDEST PUSH1 0x0 PUSH20 0xFFFFFFFFFFFFFFFFFFFFFFFFFFFFFFFFFFFFFFFF DUP3 AND SWAP1 POP SWAP2 SWAP1 POP JUMP JUMPDEST PUSH1 0x0 DUP2 SWAP1 POP SWAP2 SWAP1 POP JUMP JUMPDEST PUSH1 0x0 PUSH2 0x910 DUP3 PUSH2 0x917 JUMP JUMPDEST SWAP1 POP SWAP2 SWAP1 POP JUMP JUMPDEST PUSH1 0x0 PUSH2 0x922 DUP3 PUSH2 0x8DB JUMP JUMPDEST SWAP1 POP SWAP2 SWAP1 POP JUMP JUMPDEST PUSH2 0x932 DUP2 PUSH2 0x8CF JUMP JUMPDEST DUP2 EQ PUSH2 0x93D JUMPI PUSH1 0x0 DUP1 REVERT JUMPDEST POP JUMP JUMPDEST PUSH2 0x949 DUP2 PUSH2 0x8FB JUMP JUMPDEST DUP2 EQ PUSH2 0x954 JUMPI PUSH1 0x0 DUP1 REVERT JUMPDEST POP JUMP INVALID LOG2 PUSH5 0x6970667358 0x22 SLT KECCAK256 COINBASE PUSH22 0xCD9508C8AD3600D2F18695329ABCE6DE147FD4774E87 0xC2 0x49 0xF6 DUP8 0x23 ORIGIN SWAP12 BALANCE PUSH5 0x736F6C6343 STOP ADDMOD STOP STOP CALLER PUSH1 0x80 PUSH1 0x40 MSTORE PUSH8 0x8AC7230489E80000 PUSH1 0x2 SSTORE CALLVALUE DUP1 ISZERO PUSH2 0x1C JUMPI PUSH1 0x0 DUP1 REVERT JUMPDEST POP PUSH1 0x2 SLOAD PUSH1 0x0 DUP1 CALLER PUSH20 0xFFFFFFFFFFFFFFFFFFFFFFFFFFFFFFFFFFFFFFFF AND PUSH20 0xFFFFFFFFFFFFFFFFFFFFFFFFFFFFFFFFFFFFFFFF AND DUP2 MSTORE PUSH1 0x20 ADD SWAP1 DUP2 MSTORE PUSH1 0x20 ADD PUSH1 0x0 KECCAK256 DUP2 SWAP1 SSTORE POP PUSH2 0xD41 DUP1 PUSH2 0x71 PUSH1 0x0 CODECOPY PUSH1 0x0 RETURN INVALID PUSH1 0x80 PUSH1 0x40 MSTORE CALLVALUE DUP1 ISZERO PUSH2 0x10 JUMPI PUSH1 0x0 DUP1 REVERT JUMPDEST POP PUSH1 0x4 CALLDATASIZE LT PUSH2 0x93 JUMPI PUSH1 0x0 CALLDATALOAD PUSH1 0xE0 SHR DUP1 PUSH4 0x313CE567 GT PUSH2 0x66 JUMPI DUP1 PUSH4 0x313CE567 EQ PUSH2 0x134 JUMPI DUP1 PUSH4 0x70A08231 EQ PUSH2 0x152 JUMPI DUP1 PUSH4 0x95D89B41 EQ PUSH2 0x182 JUMPI DUP1 PUSH4 0xA9059CBB EQ PUSH2 0x1A0 JUMPI DUP1 PUSH4 0xDD62ED3E EQ PUSH2 0x1D0 JUMPI PUSH2 0x93 JUMP JUMPDEST DUP1 PUSH4 0x6FDDE03 EQ PUSH2 0x98 JUMPI DUP1 PUSH4 0x95EA7B3 EQ PUSH2 0xB6 JUMPI DUP1 PUSH4 0x18160DDD EQ PUSH2 0xE6 JUMPI DUP1 PUSH4 0x23B872DD EQ PUSH2 0x104 JUMPI JUMPDEST PUSH1 0x0 DUP1 REVERT JUMPDEST PUSH2 0xA0 PUSH2 0x200 JUMP JUMPDEST PUSH1 0x40 MLOAD PUSH2 0xAD SWAP2 SWAP1 PUSH2 0xB17 JUMP JUMPDEST PUSH1 0x40 MLOAD DUP1 SWAP2 SUB SWAP1 RETURN JUMPDEST PUSH2 0xD0 PUSH1 0x4 DUP1 CALLDATASIZE SUB DUP2 ADD SWAP1 PUSH2 0xCB SWAP2 SWAP1 PUSH2 0xA5A JUMP JUMPDEST PUSH2 0x239 JUMP JUMPDEST PUSH1 0x40 MLOAD PUSH2 0xDD SWAP2 SWAP1 PUSH2 0xAFC JUMP JUMPDEST PUSH1 0x40 MLOAD DUP1 SWAP2 SUB SWAP1 RETURN JUMPDEST PUSH2 0xEE PUSH2 0x32B JUMP JUMPDEST PUSH1 0x40 MLOAD PUSH2 0xFB SWAP2 SWAP1 PUSH2 0xB39 JUMP JUMPDEST PUSH1 0x40 MLOAD DUP1 SWAP2 SUB SWAP1 RETURN JUMPDEST PUSH2 0x11E PUSH1 0x4 DUP1 CALLDATASIZE SUB DUP2 ADD SWAP1 PUSH2 0x119 SWAP2 SWAP1 PUSH2 0xA0B JUMP JUMPDEST PUSH2 0x335 JUMP JUMPDEST PUSH1 0x40 MLOAD PUSH2 0x12B SWAP2 SWAP1 PUSH2 0xAFC JUMP JUMPDEST PUSH1 0x40 MLOAD DUP1 SWAP2 SUB SWAP1 RETURN JUMPDEST PUSH2 0x13C PUSH2 0x69B JUMP JUMPDEST PUSH1 0x40 MLOAD PUSH2 0x149 SWAP2 SWAP1 PUSH2 0xB54 JUMP JUMPDEST PUSH1 0x40 MLOAD DUP1 SWAP2 SUB SWAP1 RETURN JUMPDEST PUSH2 0x16C PUSH1 0x4 DUP1 CALLDATASIZE SUB DUP2 ADD SWAP1 PUSH2 0x167 SWAP2 SWAP1 PUSH2 0x9A6 JUMP JUMPDEST PUSH2 0x6A0 JUMP JUMPDEST PUSH1 0x40 MLOAD PUSH2 0x179 SWAP2 SWAP1 PUSH2 0xB39 JUMP JUMPDEST PUSH1 0x40 MLOAD DUP1 SWAP2 SUB SWAP1 RETURN JUMPDEST PUSH2 0x18A PUSH2 0x6E8 JUMP JUMPDEST PUSH1 0x40 MLOAD PUSH2 0x197 SWAP2 SWAP1 PUSH2 0xB17 JUMP JUMPDEST PUSH1 0x40 MLOAD DUP1 SWAP2 SUB SWAP1 RETURN JUMPDEST PUSH2 0x1BA PUSH1 0x4 DUP1 CALLDATASIZE SUB DUP2 ADD SWAP1 PUSH2 0x1B5 SWAP2 SWAP1 PUSH2 0xA5A JUMP JUMPDEST PUSH2 0x721 JUMP JUMPDEST PUSH1 0x40 MLOAD PUSH2 0x1C7 SWAP2 SWAP1 PUSH2 0xAFC JUMP JUMPDEST PUSH1 0x40 MLOAD DUP1 SWAP2 SUB SWAP1 RETURN JUMPDEST PUSH2 0x1EA PUSH1 0x4 DUP1 CALLDATASIZE SUB DUP2 ADD SWAP1 PUSH2 0x1E5 SWAP2 SWAP1 PUSH2 0x9CF JUMP JUMPDEST PUSH2 0x8F5 JUMP JUMPDEST PUSH1 0x40 MLOAD PUSH2 0x1F7 SWAP2 SWAP1 PUSH2 0xB39 JUMP JUMPDEST PUSH1 0x40 MLOAD DUP1 SWAP2 SUB SWAP1 RETURN JUMPDEST PUSH1 0x40 MLOAD DUP1 PUSH1 0x40 ADD PUSH1 0x40 MSTORE DUP1 PUSH1 0xA DUP2 MSTORE PUSH1 0x20 ADD PUSH32 0x4552433230426173696300000000000000000000000000000000000000000000 DUP2 MSTORE POP DUP2 JUMP JUMPDEST PUSH1 0x0 DUP2 PUSH1 0x1 PUSH1 0x0 CALLER PUSH20 0xFFFFFFFFFFFFFFFFFFFFFFFFFFFFFFFFFFFFFFFF AND PUSH20 0xFFFFFFFFFFFFFFFFFFFFFFFFFFFFFFFFFFFFFFFF AND DUP2 MSTORE PUSH1 0x20 ADD SWAP1 DUP2 MSTORE PUSH1 0x20 ADD PUSH1 0x0 KECCAK256 PUSH1 0x0 DUP6 PUSH20 0xFFFFFFFFFFFFFFFFFFFFFFFFFFFFFFFFFFFFFFFF AND PUSH20 0xFFFFFFFFFFFFFFFFFFFFFFFFFFFFFFFFFFFFFFFF AND DUP2 MSTORE PUSH1 0x20 ADD SWAP1 DUP2 MSTORE PUSH1 0x20 ADD PUSH1 0x0 KECCAK256 DUP2 SWAP1 SSTORE POP DUP3 PUSH20 0xFFFFFFFFFFFFFFFFFFFFFFFFFFFFFFFFFFFFFFFF AND CALLER PUSH20 0xFFFFFFFFFFFFFFFFFFFFFFFFFFFFFFFFFFFFFFFF AND PUSH32 0x8C5BE1E5EBEC7D5BD14F71427D1E84F3DD0314C0F7B2291E5B200AC8C7C3B925 DUP5 PUSH1 0x40 MLOAD PUSH2 0x319 SWAP2 SWAP1 PUSH2 0xB39 JUMP JUMPDEST PUSH1 0x40 MLOAD DUP1 SWAP2 SUB SWAP1 LOG3 PUSH1 0x1 SWAP1 POP SWAP3 SWAP2 POP POP JUMP JUMPDEST PUSH1 0x0 PUSH1 0x2 SLOAD SWAP1 POP SWAP1 JUMP JUMPDEST PUSH1 0x0 DUP1 PUSH1 0x0 DUP6 PUSH20 0xFFFFFFFFFFFFFFFFFFFFFFFFFFFFFFFFFFFFFFFF AND PUSH20 0xFFFFFFFFFFFFFFFFFFFFFFFFFFFFFFFFFFFFFFFF AND DUP2 MSTORE PUSH1 0x20 ADD SWAP1 DUP2 MSTORE PUSH1 0x20 ADD PUSH1 0x0 KECCAK256 SLOAD DUP3 GT ISZERO PUSH2 0x382 JUMPI PUSH1 0x0 DUP1 REVERT JUMPDEST PUSH1 0x1 PUSH1 0x0 DUP6 PUSH20 0xFFFFFFFFFFFFFFFFFFFFFFFFFFFFFFFFFFFFFFFF AND PUSH20 0xFFFFFFFFFFFFFFFFFFFFFFFFFFFFFFFFFFFFFFFF AND DUP2 MSTORE PUSH1 0x20 ADD SWAP1 DUP2 MSTORE PUSH1 0x20 ADD PUSH1 0x0 KECCAK256 PUSH1 0x0 CALLER PUSH20 0xFFFFFFFFFFFFFFFFFFFFFFFFFFFFFFFFFFFFFFFF AND PUSH20 0xFFFFFFFFFFFFFFFFFFFFFFFFFFFFFFFFFFFFFFFF AND DUP2 MSTORE PUSH1 0x20 ADD SWAP1 DUP2 MSTORE PUSH1 0x20 ADD PUSH1 0x0 KECCAK256 SLOAD DUP3 GT ISZERO PUSH2 0x40B JUMPI PUSH1 0x0 DUP1 REVERT JUMPDEST DUP2 PUSH1 0x0 DUP1 DUP7 PUSH20 0xFFFFFFFFFFFFFFFFFFFFFFFFFFFFFFFFFFFFFFFF AND PUSH20 0xFFFFFFFFFFFFFFFFFFFFFFFFFFFFFFFFFFFFFFFF AND DUP2 MSTORE PUSH1 0x20 ADD SWAP1 DUP2 MSTORE PUSH1 0x20 ADD PUSH1 0x0 KECCAK256 SLOAD PUSH2 0x455 SWAP2 SWAP1 PUSH2 0xBE1 JUMP JUMPDEST PUSH1 0x0 DUP1 DUP7 PUSH20 0xFFFFFFFFFFFFFFFFFFFFFFFFFFFFFFFFFFFFFFFF AND PUSH20 0xFFFFFFFFFFFFFFFFFFFFFFFFFFFFFFFFFFFFFFFF AND DUP2 MSTORE PUSH1 0x20 ADD SWAP1 DUP2 MSTORE PUSH1 0x20 ADD PUSH1 0x0 KECCAK256 DUP2 SWAP1 SSTORE POP DUP2 PUSH1 0x1 PUSH1 0x0 DUP7 PUSH20 0xFFFFFFFFFFFFFFFFFFFFFFFFFFFFFFFFFFFFFFFF AND PUSH20 0xFFFFFFFFFFFFFFFFFFFFFFFFFFFFFFFFFFFFFFFF AND DUP2 MSTORE PUSH1 0x20 ADD SWAP1 DUP2 MSTORE PUSH1 0x20 ADD PUSH1 0x0 KECCAK256 PUSH1 0x0 CALLER PUSH20 0xFFFFFFFFFFFFFFFFFFFFFFFFFFFFFFFFFFFFFFFF AND PUSH20 0xFFFFFFFFFFFFFFFFFFFFFFFFFFFFFFFFFFFFFFFF AND DUP2 MSTORE PUSH1 0x20 ADD SWAP1 DUP2 MSTORE PUSH1 0x20 ADD PUSH1 0x0 KECCAK256 SLOAD PUSH2 0x51F SWAP2 SWAP1 PUSH2 0xBE1 JUMP JUMPDEST PUSH1 0x1 PUSH1 0x0 DUP7 PUSH20 0xFFFFFFFFFFFFFFFFFFFFFFFFFFFFFFFFFFFFFFFF AND PUSH20 0xFFFFFFFFFFFFFFFFFFFFFFFFFFFFFFFFFFFFFFFF AND DUP2 MSTORE PUSH1 0x20 ADD SWAP1 DUP2 MSTORE PUSH1 0x20 ADD PUSH1 0x0 KECCAK256 PUSH1 0x0 CALLER PUSH20 0xFFFFFFFFFFFFFFFFFFFFFFFFFFFFFFFFFFFFFFFF AND PUSH20 0xFFFFFFFFFFFFFFFFFFFFFFFFFFFFFFFFFFFFFFFF AND DUP2 MSTORE PUSH1 0x20 ADD SWAP1 DUP2 MSTORE PUSH1 0x20 ADD PUSH1 0x0 KECCAK256 DUP2 SWAP1 SSTORE POP DUP2 PUSH1 0x0 DUP1 DUP6 PUSH20 0xFFFFFFFFFFFFFFFFFFFFFFFFFFFFFFFFFFFFFFFF AND PUSH20 0xFFFFFFFFFFFFFFFFFFFFFFFFFFFFFFFFFFFFFFFF AND DUP2 MSTORE PUSH1 0x20 ADD SWAP1 DUP2 MSTORE PUSH1 0x20 ADD PUSH1 0x0 KECCAK256 SLOAD PUSH2 0x5E9 SWAP2 SWAP1 PUSH2 0xB8B JUMP JUMPDEST PUSH1 0x0 DUP1 DUP6 PUSH20 0xFFFFFFFFFFFFFFFFFFFFFFFFFFFFFFFFFFFFFFFF AND PUSH20 0xFFFFFFFFFFFFFFFFFFFFFFFFFFFFFFFFFFFFFFFF AND DUP2 MSTORE PUSH1 0x20 ADD SWAP1 DUP2 MSTORE PUSH1 0x20 ADD PUSH1 0x0 KECCAK256 DUP2 SWAP1 SSTORE POP DUP3 PUSH20 0xFFFFFFFFFFFFFFFFFFFFFFFFFFFFFFFFFFFFFFFF AND DUP5 PUSH20 0xFFFFFFFFFFFFFFFFFFFFFFFFFFFFFFFFFFFFFFFF AND PUSH32 0xDDF252AD1BE2C89B69C2B068FC378DAA952BA7F163C4A11628F55A4DF523B3EF DUP5 PUSH1 0x40 MLOAD PUSH2 0x688 SWAP2 SWAP1 PUSH2 0xB39 JUMP JUMPDEST PUSH1 0x40 MLOAD DUP1 SWAP2 SUB SWAP1 LOG3 PUSH1 0x1 SWAP1 POP SWAP4 SWAP3 POP POP POP JUMP JUMPDEST PUSH1 0x12 DUP2 JUMP JUMPDEST PUSH1 0x0 DUP1 PUSH1 0x0 DUP4 PUSH20 0xFFFFFFFFFFFFFFFFFFFFFFFFFFFFFFFFFFFFFFFF AND PUSH20 0xFFFFFFFFFFFFFFFFFFFFFFFFFFFFFFFFFFFFFFFF AND DUP2 MSTORE PUSH1 0x20 ADD SWAP1 DUP2 MSTORE PUSH1 0x20 ADD PUSH1 0x0 KECCAK256 SLOAD SWAP1 POP SWAP2 SWAP1 POP JUMP JUMPDEST PUSH1 0x40 MLOAD DUP1 PUSH1 0x40 ADD PUSH1 0x40 MSTORE DUP1 PUSH1 0x3 DUP2 MSTORE PUSH1 0x20 ADD PUSH32 0x4552430000000000000000000000000000000000000000000000000000000000 DUP2 MSTORE POP DUP2 JUMP JUMPDEST PUSH1 0x0 DUP1 PUSH1 0x0 CALLER PUSH20 0xFFFFFFFFFFFFFFFFFFFFFFFFFFFFFFFFFFFFFFFF AND PUSH20 0xFFFFFFFFFFFFFFFFFFFFFFFFFFFFFFFFFFFFFFFF AND DUP2 MSTORE PUSH1 0x20 ADD SWAP1 DUP2 MSTORE PUSH1 0x20 ADD PUSH1 0x0 KECCAK256 SLOAD DUP3 GT ISZERO PUSH2 0x76E JUMPI PUSH1 0x0 DUP1 REVERT JUMPDEST DUP2 PUSH1 0x0 DUP1 CALLER PUSH20 0xFFFFFFFFFFFFFFFFFFFFFFFFFFFFFFFFFFFFFFFF AND PUSH20 0xFFFFFFFFFFFFFFFFFFFFFFFFFFFFFFFFFFFFFFFF AND DUP2 MSTORE PUSH1 0x20 ADD SWAP1 DUP2 MSTORE PUSH1 0x20 ADD PUSH1 0x0 KECCAK256 SLOAD PUSH2 0x7B8 SWAP2 SWAP1 PUSH2 0xBE1 JUMP JUMPDEST PUSH1 0x0 DUP1 CALLER PUSH20 0xFFFFFFFFFFFFFFFFFFFFFFFFFFFFFFFFFFFFFFFF AND PUSH20 0xFFFFFFFFFFFFFFFFFFFFFFFFFFFFFFFFFFFFFFFF AND DUP2 MSTORE PUSH1 0x20 ADD SWAP1 DUP2 MSTORE PUSH1 0x20 ADD PUSH1 0x0 KECCAK256 DUP2 SWAP1 SSTORE POP DUP2 PUSH1 0x0 DUP1 DUP6 PUSH20 0xFFFFFFFFFFFFFFFFFFFFFFFFFFFFFFFFFFFFFFFF AND PUSH20 0xFFFFFFFFFFFFFFFFFFFFFFFFFFFFFFFFFFFFFFFF AND DUP2 MSTORE PUSH1 0x20 ADD SWAP1 DUP2 MSTORE PUSH1 0x20 ADD PUSH1 0x0 KECCAK256 SLOAD PUSH2 0x844 SWAP2 SWAP1 PUSH2 0xB8B JUMP JUMPDEST PUSH1 0x0 DUP1 DUP6 PUSH20 0xFFFFFFFFFFFFFFFFFFFFFFFFFFFFFFFFFFFFFFFF AND PUSH20 0xFFFFFFFFFFFFFFFFFFFFFFFFFFFFFFFFFFFFFFFF AND DUP2 MSTORE PUSH1 0x20 ADD SWAP1 DUP2 MSTORE PUSH1 0x20 ADD PUSH1 0x0 KECCAK256 DUP2 SWAP1 SSTORE POP DUP3 PUSH20 0xFFFFFFFFFFFFFFFFFFFFFFFFFFFFFFFFFFFFFFFF AND CALLER PUSH20 0xFFFFFFFFFFFFFFFFFFFFFFFFFFFFFFFFFFFFFFFF AND PUSH32 0xDDF252AD1BE2C89B69C2B068FC378DAA952BA7F163C4A11628F55A4DF523B3EF DUP5 PUSH1 0x40 MLOAD PUSH2 0x8E3 SWAP2 SWAP1 PUSH2 0xB39 JUMP JUMPDEST PUSH1 0x40 MLOAD DUP1 SWAP2 SUB SWAP1 LOG3 PUSH1 0x1 SWAP1 POP SWAP3 SWAP2 POP POP JUMP JUMPDEST PUSH1 0x0 PUSH1 0x1 PUSH1 0x0 DUP5 PUSH20 0xFFFFFFFFFFFFFFFFFFFFFFFFFFFFFFFFFFFFFFFF AND PUSH20 0xFFFFFFFFFFFFFFFFFFFFFFFFFFFFFFFFFFFFFFFF AND DUP2 MSTORE PUSH1 0x20 ADD SWAP1 DUP2 MSTORE PUSH1 0x20 ADD PUSH1 0x0 KECCAK256 PUSH1 0x0 DUP4 PUSH20 0xFFFFFFFFFFFFFFFFFFFFFFFFFFFFFFFFFFFFFFFF AND PUSH20 0xFFFFFFFFFFFFFFFFFFFFFFFFFFFFFFFFFFFFFFFF AND DUP2 MSTORE PUSH1 0x20 ADD SWAP1 DUP2 MSTORE PUSH1 0x20 ADD PUSH1 0x0 KECCAK256 SLOAD SWAP1 POP SWAP3 SWAP2 POP POP JUMP JUMPDEST PUSH1 0x0 DUP2 CALLDATALOAD SWAP1 POP PUSH2 0x98B DUP2 PUSH2 0xCDD JUMP JUMPDEST SWAP3 SWAP2 POP POP JUMP JUMPDEST PUSH1 0x0 DUP2 CALLDATALOAD SWAP1 POP PUSH2 0x9A0 DUP2 PUSH2 0xCF4 JUMP JUMPDEST SWAP3 SWAP2 POP POP JUMP JUMPDEST PUSH1 0x0 PUSH1 0x20 DUP3 DUP5 SUB SLT ISZERO PUSH2 0x9B8 JUMPI PUSH1 0x0 DUP1 REVERT JUMPDEST PUSH1 0x0 PUSH2 0x9C6 DUP5 DUP3 DUP6 ADD PUSH2 0x97C JUMP JUMPDEST SWAP2 POP POP SWAP3 SWAP2 POP POP JUMP JUMPDEST PUSH1 0x0 DUP1 PUSH1 0x40 DUP4 DUP6 SUB SLT ISZERO PUSH2 0x9E2 JUMPI PUSH1 0x0 DUP1 REVERT JUMPDEST PUSH1 0x0 PUSH2 0x9F0 DUP6 DUP3 DUP7 ADD PUSH2 0x97C JUMP JUMPDEST SWAP3 POP POP PUSH1 0x20 PUSH2 0xA01 DUP6 DUP3 DUP7 ADD PUSH2 0x97C JUMP JUMPDEST SWAP2 POP POP SWAP3 POP SWAP3 SWAP1 POP JUMP JUMPDEST PUSH1 0x0 DUP1 PUSH1 0x0 PUSH1 0x60 DUP5 DUP7 SUB SLT ISZERO PUSH2 0xA20 JUMPI PUSH1 0x0 DUP1 REVERT JUMPDEST PUSH1 0x0 PUSH2 0xA2E DUP7 DUP3 DUP8 ADD PUSH2 0x97C JUMP JUMPDEST SWAP4 POP POP PUSH1 0x20 PUSH2 0xA3F DUP7 DUP3 DUP8 ADD PUSH2 0x97C JUMP JUMPDEST SWAP3 POP POP PUSH1 0x40 PUSH2 0xA50 DUP7 DUP3 DUP8 ADD PUSH2 0x991 JUMP JUMPDEST SWAP2 POP POP SWAP3 POP SWAP3 POP SWAP3 JUMP JUMPDEST PUSH1 0x0 DUP1 PUSH1 0x40 DUP4 DUP6 SUB SLT ISZERO PUSH2 0xA6D JUMPI PUSH1 0x0 DUP1 REVERT JUMPDEST PUSH1 0x0 PUSH2 0xA7B DUP6 DUP3 DUP7 ADD PUSH2 0x97C JUMP JUMPDEST SWAP3 POP POP PUSH1 0x20 PUSH2 0xA8C DUP6 DUP3 DUP7 ADD PUSH2 0x991 JUMP JUMPDEST SWAP2 POP POP SWAP3 POP SWAP3 SWAP1 POP JUMP JUMPDEST PUSH2 0xA9F DUP2 PUSH2 0xC27 JUMP JUMPDEST DUP3 MSTORE POP POP JUMP JUMPDEST PUSH1 0x0 PUSH2 0xAB0 DUP3 PUSH2 0xB6F JUMP JUMPDEST PUSH2 0xABA DUP2 DUP6 PUSH2 0xB7A JUMP JUMPDEST SWAP4 POP PUSH2 0xACA DUP2 DUP6 PUSH1 0x20 DUP7 ADD PUSH2 0xC6A JUMP JUMPDEST PUSH2 0xAD3 DUP2 PUSH2 0xCCC JUMP JUMPDEST DUP5 ADD SWAP2 POP POP SWAP3 SWAP2 POP POP JUMP JUMPDEST PUSH2 0xAE7 DUP2 PUSH2 0xC53 JUMP JUMPDEST DUP3 MSTORE POP POP JUMP JUMPDEST PUSH2 0xAF6 DUP2 PUSH2 0xC5D JUMP JUMPDEST DUP3 MSTORE POP POP JUMP JUMPDEST PUSH1 0x0 PUSH1 0x20 DUP3 ADD SWAP1 POP PUSH2 0xB11 PUSH1 0x0 DUP4 ADD DUP5 PUSH2 0xA96 JUMP JUMPDEST SWAP3 SWAP2 POP POP JUMP JUMPDEST PUSH1 0x0 PUSH1 0x20 DUP3 ADD SWAP1 POP DUP2 DUP2 SUB PUSH1 0x0 DUP4 ADD MSTORE PUSH2 0xB31 DUP2 DUP5 PUSH2 0xAA5 JUMP JUMPDEST SWAP1 POP SWAP3 SWAP2 POP POP JUMP JUMPDEST PUSH1 0x0 PUSH1 0x20 DUP3 ADD SWAP1 POP PUSH2 0xB4E PUSH1 0x0 DUP4 ADD DUP5 PUSH2 0xADE JUMP JUMPDEST SWAP3 SWAP2 POP POP JUMP JUMPDEST PUSH1 0x0 PUSH1 0x20 DUP3 ADD SWAP1 POP PUSH2 0xB69 PUSH1 0x0 DUP4 ADD DUP5 PUSH2 0xAED JUMP JUMPDEST SWAP3 SWAP2 POP POP JUMP JUMPDEST PUSH1 0x0 DUP2 MLOAD SWAP1 POP SWAP2 SWAP1 POP JUMP JUMPDEST PUSH1 0x0 DUP3 DUP3 MSTORE PUSH1 0x20 DUP3 ADD SWAP1 POP SWAP3 SWAP2 POP POP JUMP JUMPDEST PUSH1 0x0 PUSH2 0xB96 DUP3 PUSH2 0xC53 JUMP JUMPDEST SWAP2 POP PUSH2 0xBA1 DUP4 PUSH2 0xC53 JUMP JUMPDEST SWAP3 POP DUP3 PUSH32 0xFFFFFFFFFFFFFFFFFFFFFFFFFFFFFFFFFFFFFFFFFFFFFFFFFFFFFFFFFFFFFFFF SUB DUP3 GT ISZERO PUSH2 0xBD6 JUMPI PUSH2 0xBD5 PUSH2 0xC9D JUMP JUMPDEST JUMPDEST DUP3 DUP3 ADD SWAP1 POP SWAP3 SWAP2 POP POP JUMP JUMPDEST PUSH1 0x0 PUSH2 0xBEC DUP3 PUSH2 0xC53 JUMP JUMPDEST SWAP2 POP PUSH2 0xBF7 DUP4 PUSH2 0xC53 JUMP JUMPDEST SWAP3 POP DUP3 DUP3 LT ISZERO PUSH2 0xC0A JUMPI PUSH2 0xC09 PUSH2 0xC9D JUMP JUMPDEST JUMPDEST DUP3 DUP3 SUB SWAP1 POP SWAP3 SWAP2 POP POP JUMP JUMPDEST PUSH1 0x0 PUSH2 0xC20 DUP3 PUSH2 0xC33 JUMP JUMPDEST SWAP1 POP SWAP2 SWAP1 POP JUMP JUMPDEST PUSH1 0x0 DUP2 ISZERO ISZERO SWAP1 POP SWAP2 SWAP1 POP JUMP JUMPDEST PUSH1 0x0 PUSH20 0xFFFFFFFFFFFFFFFFFFFFFFFFFFFFFFFFFFFFFFFF DUP3 AND SWAP1 POP SWAP2 SWAP1 POP JUMP JUMPDEST PUSH1 0x0 DUP2 SWAP1 POP SWAP2 SWAP1 POP JUMP JUMPDEST PUSH1 0x0 PUSH1 0xFF DUP3 AND SWAP1 POP SWAP2 SWAP1 POP JUMP JUMPDEST PUSH1 0x0 JUMPDEST DUP4 DUP2 LT ISZERO PUSH2 0xC88 JUMPI DUP1 DUP3 ADD MLOAD DUP2 DUP5 ADD MSTORE PUSH1 0x20 DUP2 ADD SWAP1 POP PUSH2 0xC6D JUMP JUMPDEST DUP4 DUP2 GT ISZERO PUSH2 0xC97 JUMPI PUSH1 0x0 DUP5 DUP5 ADD MSTORE JUMPDEST POP POP POP POP JUMP JUMPDEST PUSH32 0x4E487B7100000000000000000000000000000000000000000000000000000000 PUSH1 0x0 MSTORE PUSH1 0x11 PUSH1 0x4 MSTORE PUSH1 0x24 PUSH1 0x0 REVERT JUMPDEST PUSH1 0x0 PUSH1 0x1F NOT PUSH1 0x1F DUP4 ADD AND SWAP1 POP SWAP2 SWAP1 POP JUMP JUMPDEST PUSH2 0xCE6 DUP2 PUSH2 0xC15 JUMP JUMPDEST DUP2 EQ PUSH2 0xCF1 JUMPI PUSH1 0x0 DUP1 REVERT JUMPDEST POP JUMP JUMPDEST PUSH2 0xCFD DUP2 PUSH2 0xC53 JUMP JUMPDEST DUP2 EQ PUSH2 0xD08 JUMPI PUSH1 0x0 DUP1 REVERT JUMPDEST POP JUMP INVALID LOG2 PUSH5 0x6970667358 0x22 SLT KECCAK256 PUSH17 0x2C23C8A9C20948F3C6F110D1752689AAB4 PUSH19 0x37A8434EEA874ADD603762760564736F6C6343 STOP ADDMOD STOP STOP CALLER "
				},
				"gasEstimates": {
					"creation": {
						"codeDepositCost": "489000",
						"executionCost": "infinite",
						"totalCost": "infinite"
					},
					"external": {
						"buy()": "infinite",
						"sell(uint256)": "infinite",
						"token()": "1276"
					}
				},
				"methodIdentifiers": {
					"buy()": "a6f2ae3a",
					"sell(uint256)": "e4849b32",
					"token()": "fc0c546a"
				}
			},
			"storageLayout": {
				"storage": [
					{
						"astId": 310,
						"contract": "test2.sol:DEX",
						"label": "token",
						"offset": 0,
						"slot": "0",
						"type": "t_contract(IERC20)68"
					}
				],
				"types": {
					"t_contract(IERC20)68": {
						"encoding": "inplace",
						"label": "contract IERC20",
						"numberOfBytes": "20"
					}
				}
			},
			"userdoc": {
				"kind": "user",
				"methods": {},
				"version": 1
			}
		}
	}
}